{
  "contractName": "BreadShop",
  "abi": [
    {
      "inputs": [
        {
          "internalType": "address",
          "name": "",
          "type": "address"
        }
      ],
      "name": "breads",
      "outputs": [
        {
          "internalType": "uint256",
          "name": "",
          "type": "uint256"
        }
      ],
      "stateMutability": "view",
      "type": "function",
      "constant": true
    },
    {
      "inputs": [
        {
          "internalType": "uint256",
          "name": "count",
          "type": "uint256"
        },
        {
          "internalType": "uint256",
          "name": "pay",
          "type": "uint256"
        }
      ],
      "name": "buyBread",
      "outputs": [],
      "stateMutability": "payable",
      "type": "function",
      "payable": true
    },
    {
      "inputs": [
        {
          "internalType": "uint256",
          "name": "count",
          "type": "uint256"
        },
        {
          "internalType": "uint256",
          "name": "pay",
          "type": "uint256"
        }
      ],
      "name": "sellBread",
      "outputs": [],
      "stateMutability": "payable",
      "type": "function",
      "payable": true
    },
    {
      "inputs": [],
      "name": "getBread",
      "outputs": [
        {
          "internalType": "uint256",
          "name": "",
          "type": "uint256"
        }
      ],
      "stateMutability": "view",
      "type": "function",
      "constant": true
    },
    {
      "inputs": [],
      "name": "getSender",
      "outputs": [
        {
          "internalType": "address",
          "name": "",
          "type": "address"
        }
      ],
      "stateMutability": "view",
      "type": "function",
      "constant": true
    },
    {
      "inputs": [
        {
          "internalType": "uint256",
          "name": "_price",
          "type": "uint256"
        }
      ],
      "name": "setPrice",
      "outputs": [],
      "stateMutability": "nonpayable",
      "type": "function"
    },
    {
      "inputs": [],
      "name": "getPrice",
      "outputs": [
        {
          "internalType": "uint256",
          "name": "",
          "type": "uint256"
        }
      ],
      "stateMutability": "view",
      "type": "function",
      "constant": true
    }
  ],
  "bytecode": "0x60806040526001805534801561001457600080fd5b5061065e806100246000396000f3fe6080604052600436106100705760003560e01c80637b50db5c1161004e5780637b50db5c146100e757806391b7f5ed1461010357806398d5fdca1461012c578063e081aaa91461015757610070565b80632fad08dc146100755780635526e253146100a05780635e01eb5a146100bc575b600080fd5b34801561008157600080fd5b5061008a610194565b6040516100979190610381565b60405180910390f35b6100ba60048036038101906100b591906103cd565b6101da565b005b3480156100c857600080fd5b506100d16102b0565b6040516100de919061044e565b60405180910390f35b61010160048036038101906100fc91906103cd565b6102b8565b005b34801561010f57600080fd5b5061012a60048036038101906101259190610469565b61033c565b005b34801561013857600080fd5b50610141610346565b60405161014e9190610381565b60405180910390f35b34801561016357600080fd5b5061017e600480360381019061017991906104c2565b610350565b60405161018b9190610381565b60405180910390f35b60008060003373ffffffffffffffffffffffffffffffffffffffff1673ffffffffffffffffffffffffffffffffffffffff16815260200190815260200160002054905090565b816000803373ffffffffffffffffffffffffffffffffffffffff1673ffffffffffffffffffffffffffffffffffffffff1681526020019081526020016000206000828254610228919061051e565b925050819055503373ffffffffffffffffffffffffffffffffffffffff166108fc6064605f670de0b6b3a764000085876102629190610552565b61026c9190610552565b6102769190610552565b61028091906105c3565b9081150290604051600060405180830381858888f193505050501580156102ab573d6000803e3d6000fd5b505050565b600033905090565b670de0b6b3a764000081836102cd9190610552565b6102d79190610552565b3410156102e357600080fd5b816000803373ffffffffffffffffffffffffffffffffffffffff1673ffffffffffffffffffffffffffffffffffffffff168152602001908152602001600020600082825461033191906105f4565b925050819055505050565b8060018190555050565b6000600154905090565b60006020528060005260406000206000915090505481565b6000819050919050565b61037b81610368565b82525050565b60006020820190506103966000830184610372565b92915050565b600080fd5b6103aa81610368565b81146103b557600080fd5b50565b6000813590506103c7816103a1565b92915050565b600080604083850312156103e4576103e361039c565b5b60006103f2858286016103b8565b9250506020610403858286016103b8565b9150509250929050565b600073ffffffffffffffffffffffffffffffffffffffff82169050919050565b60006104388261040d565b9050919050565b6104488161042d565b82525050565b6000602082019050610463600083018461043f565b92915050565b60006020828403121561047f5761047e61039c565b5b600061048d848285016103b8565b91505092915050565b61049f8161042d565b81146104aa57600080fd5b50565b6000813590506104bc81610496565b92915050565b6000602082840312156104d8576104d761039c565b5b60006104e6848285016104ad565b91505092915050565b7f4e487b7100000000000000000000000000000000000000000000000000000000600052601160045260246000fd5b600061052982610368565b915061053483610368565b925082820390508181111561054c5761054b6104ef565b5b92915050565b600061055d82610368565b915061056883610368565b925082820261057681610368565b9150828204841483151761058d5761058c6104ef565b5b5092915050565b7f4e487b7100000000000000000000000000000000000000000000000000000000600052601260045260246000fd5b60006105ce82610368565b91506105d983610368565b9250826105e9576105e8610594565b5b828204905092915050565b60006105ff82610368565b915061060a83610368565b9250828201905080821115610622576106216104ef565b5b9291505056fea26469706673582212201500737d7700c36872fddfa949e39ca5ddb2224b6e4551d4f8fe99abc5bfff4f64736f6c63430008130033",
  "immutableReferences": {},
  "source": "// SPDX-License-Identifier: MIT\r\npragma solidity ^0.8.19;\r\n\r\ncontract BreadShop {\r\n  mapping(address => uint) public breads;\r\n  uint price = 1;\r\n\r\n  function buyBread(uint count, uint pay) public payable {\r\n    require(msg.value >= count * pay * 10 ** 18);\r\n    breads[msg.sender] += count;\r\n  }\r\n\r\n  function sellBread(uint count, uint pay) public payable {\r\n    breads[msg.sender] -= count;\r\n    payable(msg.sender).transfer((count * pay * 10 ** 18 * 95) / 100);\r\n  }\r\n\r\n  function getBread() public view returns (uint) {\r\n    return breads[msg.sender];\r\n  }\r\n\r\n  function getSender() public view returns (address) {\r\n    return msg.sender;\r\n  }\r\n\r\n  function setPrice(uint _price) public {\r\n    price = _price;\r\n  }\r\n\r\n  function getPrice() public view returns (uint) {\r\n    return price;\r\n  }\r\n}\r\n",
  "sourcePath": "C:\\Users\\pys98\\OneDrive\\\\GitHub\\nyes-main\\0308_91\\back\\contracts\\BreadShop.sol",
  "compiler": {
    "name": "solc",
    "version": "0.8.19+commit.7dd6d404.Emscripten.clang"
  },
  "schemaVersion": "3.4.13",
  "updatedAt": "2023-03-08T08:23:50.209Z",
  "networkType": "ethereum",
  "devdoc": {
    "kind": "dev",
    "methods": {},
    "version": 1
  },
  "userdoc": {
    "kind": "user",
    "methods": {},
    "version": 1
  }
}