{
	"data": {
		"bytecode": {
			"linkReferences": {},
			"object": "60806040523480156200001157600080fd5b5060405162000f2e38038062000f2e833981810160405281019062000037919062000166565b8560008190555033600160006101000a81548173ffffffffffffffffffffffffffffffffffffffff021916908373ffffffffffffffffffffffffffffffffffffffff160217905550600060038190555060018162000096919062000231565b603c83620000a5919062000231565b610e1085620000b5919062000231565b6201518087620000c6919062000231565b62093a8089620000d7919062000231565b42620000e491906200027c565b620000f091906200027c565b620000fc91906200027c565b6200010891906200027c565b6200011491906200027c565b600481905550505050505050620002b7565b600080fd5b6000819050919050565b62000140816200012b565b81146200014c57600080fd5b50565b600081519050620001608162000135565b92915050565b60008060008060008060c0878903121562000186576200018562000126565b5b60006200019689828a016200014f565b9650506020620001a989828a016200014f565b9550506040620001bc89828a016200014f565b9450506060620001cf89828a016200014f565b9350506080620001e289828a016200014f565b92505060a0620001f589828a016200014f565b9150509295509295509295565b7f4e487b7100000000000000000000000000000000000000000000000000000000600052601160045260246000fd5b60006200023e826200012b565b91506200024b836200012b565b92508282026200025b816200012b565b9150828204841483151762000275576200027462000202565b5b5092915050565b600062000289826200012b565b915062000296836200012b565b9250828201905080821115620002b157620002b062000202565b5b92915050565b610c6780620002c76000396000f3fe60806040526004361061007f5760003560e01c80638da5cb5b1161004e5780638da5cb5b146101a7578063953b8fb8146101d2578063cc6cb19a146101fd578063ce1b088a1461023a57610138565b8063159f01361461013d5780634bf7172914610147578063590e1ae3146101725780635958611e1461017c57610138565b366101385760045442106100c8576040517f08c379a00000000000000000000000000000000000000000000000000000000081526004016100bf90610832565b60405180910390fd5b34600260003373ffffffffffffffffffffffffffffffffffffffff1673ffffffffffffffffffffffffffffffffffffffff1681526020019081526020016000206000828254610117919061088b565b925050819055503460036000828254610130919061088b565b925050819055005b600080fd5b610145610244565b005b34801561015357600080fd5b5061015c6103dd565b60405161016991906108ce565b60405180910390f35b61017a610424565b005b34801561018857600080fd5b50610191610603565b60405161019e91906108ce565b60405180910390f35b3480156101b357600080fd5b506101bc610609565b6040516101c9919061092a565b60405180910390f35b3480156101de57600080fd5b506101e761062f565b6040516101f491906108ce565b60405180910390f35b34801561020957600080fd5b50610224600480360381019061021f9190610976565b610635565b60405161023191906108ce565b60405180910390f35b61024261064d565b005b6004544210610288576040517f08c379a000000000000000000000000000000000000000000000000000000000815260040161027f90610832565b60405180910390fd5b6000600260003373ffffffffffffffffffffffffffffffffffffffff1673ffffffffffffffffffffffffffffffffffffffff168152602001908152602001600020541161030a576040517f08c379a000000000000000000000000000000000000000000000000000000000815260040161030190610a15565b60405180910390fd5b6000600260003373ffffffffffffffffffffffffffffffffffffffff1673ffffffffffffffffffffffffffffffffffffffff1681526020019081526020016000205490506000600260003373ffffffffffffffffffffffffffffffffffffffff1673ffffffffffffffffffffffffffffffffffffffff168152602001908152602001600020819055503373ffffffffffffffffffffffffffffffffffffffff166108fc829081150290604051600060405180830381858888f193505050501580156103d9573d6000803e3d6000fd5b5050565b6000600260003373ffffffffffffffffffffffffffffffffffffffff1673ffffffffffffffffffffffffffffffffffffffff16815260200190815260200160002054905090565b6004544211610468576040517f08c379a000000000000000000000000000000000000000000000000000000000815260040161045f90610a81565b60405180910390fd5b600054600354106104ae576040517f08c379a00000000000000000000000000000000000000000000000000000000081526004016104a590610aed565b60405180910390fd5b6000600260003373ffffffffffffffffffffffffffffffffffffffff1673ffffffffffffffffffffffffffffffffffffffff1681526020019081526020016000205411610530576040517f08c379a000000000000000000000000000000000000000000000000000000000815260040161052790610a15565b60405180910390fd5b6000600260003373ffffffffffffffffffffffffffffffffffffffff1673ffffffffffffffffffffffffffffffffffffffff1681526020019081526020016000205490506000600260003373ffffffffffffffffffffffffffffffffffffffff1673ffffffffffffffffffffffffffffffffffffffff168152602001908152602001600020819055503373ffffffffffffffffffffffffffffffffffffffff166108fc829081150290604051600060405180830381858888f193505050501580156105ff573d6000803e3d6000fd5b5050565b60045481565b600160009054906101000a900473ffffffffffffffffffffffffffffffffffffffff1681565b60005481565b60026020528060005260406000206000915090505481565b600160009054906101000a900473ffffffffffffffffffffffffffffffffffffffff1673ffffffffffffffffffffffffffffffffffffffff163373ffffffffffffffffffffffffffffffffffffffff16146106dd576040517f08c379a00000000000000000000000000000000000000000000000000000000081526004016106d490610b7f565b60405180910390fd5b6000546003541015610724576040517f08c379a000000000000000000000000000000000000000000000000000000000815260040161071b90610c11565b60405180910390fd5b6004544211610768576040517f08c379a000000000000000000000000000000000000000000000000000000000815260040161075f90610a81565b60405180910390fd5b600160009054906101000a900473ffffffffffffffffffffffffffffffffffffffff1673ffffffffffffffffffffffffffffffffffffffff166108fc6003549081150290604051600060405180830381858888f193505050501580156107d2573d6000803e3d6000fd5b50565b600082825260208201905092915050565b7f546869732066756e64696e67206973206f766572000000000000000000000000600082015250565b600061081c6014836107d5565b9150610827826107e6565b602082019050919050565b6000602082019050818103600083015261084b8161080f565b9050919050565b6000819050919050565b7f4e487b7100000000000000000000000000000000000000000000000000000000600052601160045260246000fd5b600061089682610852565b91506108a183610852565b92508282019050808211156108b9576108b861085c565b5b92915050565b6108c881610852565b82525050565b60006020820190506108e360008301846108bf565b92915050565b600073ffffffffffffffffffffffffffffffffffffffff82169050919050565b6000610914826108e9565b9050919050565b61092481610909565b82525050565b600060208201905061093f600083018461091b565b92915050565b600080fd5b61095381610909565b811461095e57600080fd5b50565b6000813590506109708161094a565b92915050565b60006020828403121561098c5761098b610945565b5b600061099a84828501610961565b91505092915050565b7f596f7520646964206e6f7420646f6e61746520746f20746869732066756e646960008201527f6e67000000000000000000000000000000000000000000000000000000000000602082015250565b60006109ff6022836107d5565b9150610a0a826109a3565b604082019050919050565b60006020820190508181036000830152610a2e816109f2565b9050919050565b7f546869732066756e64696e67206973206e6f74206f7665722079657400000000600082015250565b6000610a6b601c836107d5565b9150610a7682610a35565b602082019050919050565b60006020820190508181036000830152610a9a81610a5e565b9050919050565b7f5468652066756e64696e672064696420726561636865642074686520676f616c600082015250565b6000610ad76020836107d5565b9150610ae282610aa1565b602082019050919050565b60006020820190508181036000830152610b0681610aca565b9050919050565b7f46756e64732077696c6c206f6e6c792062652072656c656173656420746f207460008201527f6865206f776e6572000000000000000000000000000000000000000000000000602082015250565b6000610b696028836107d5565b9150610b7482610b0d565b604082019050919050565b60006020820190508181036000830152610b9881610b5c565b9050919050565b7f5468652066756e64696e6720646964206e6f742072656163682074686520676f60008201527f616c000000000000000000000000000000000000000000000000000000000000602082015250565b6000610bfb6022836107d5565b9150610c0682610b9f565b604082019050919050565b60006020820190508181036000830152610c2a81610bee565b905091905056fea26469706673582212207c4544cc50afc2723d3322651699475a95ce3ed3f194393c2a90f484666bd2c264736f6c63430008130033",
			"opcodes": "PUSH1 0x80 PUSH1 0x40 MSTORE CALLVALUE DUP1 ISZERO PUSH3 0x11 JUMPI PUSH1 0x0 DUP1 REVERT JUMPDEST POP PUSH1 0x40 MLOAD PUSH3 0xF2E CODESIZE SUB DUP1 PUSH3 0xF2E DUP4 CODECOPY DUP2 DUP2 ADD PUSH1 0x40 MSTORE DUP2 ADD SWAP1 PUSH3 0x37 SWAP2 SWAP1 PUSH3 0x166 JUMP JUMPDEST DUP6 PUSH1 0x0 DUP2 SWAP1 SSTORE POP CALLER PUSH1 0x1 PUSH1 0x0 PUSH2 0x100 EXP DUP2 SLOAD DUP2 PUSH20 0xFFFFFFFFFFFFFFFFFFFFFFFFFFFFFFFFFFFFFFFF MUL NOT AND SWAP1 DUP4 PUSH20 0xFFFFFFFFFFFFFFFFFFFFFFFFFFFFFFFFFFFFFFFF AND MUL OR SWAP1 SSTORE POP PUSH1 0x0 PUSH1 0x3 DUP2 SWAP1 SSTORE POP PUSH1 0x1 DUP2 PUSH3 0x96 SWAP2 SWAP1 PUSH3 0x231 JUMP JUMPDEST PUSH1 0x3C DUP4 PUSH3 0xA5 SWAP2 SWAP1 PUSH3 0x231 JUMP JUMPDEST PUSH2 0xE10 DUP6 PUSH3 0xB5 SWAP2 SWAP1 PUSH3 0x231 JUMP JUMPDEST PUSH3 0x15180 DUP8 PUSH3 0xC6 SWAP2 SWAP1 PUSH3 0x231 JUMP JUMPDEST PUSH3 0x93A80 DUP10 PUSH3 0xD7 SWAP2 SWAP1 PUSH3 0x231 JUMP JUMPDEST TIMESTAMP PUSH3 0xE4 SWAP2 SWAP1 PUSH3 0x27C JUMP JUMPDEST PUSH3 0xF0 SWAP2 SWAP1 PUSH3 0x27C JUMP JUMPDEST PUSH3 0xFC SWAP2 SWAP1 PUSH3 0x27C JUMP JUMPDEST PUSH3 0x108 SWAP2 SWAP1 PUSH3 0x27C JUMP JUMPDEST PUSH3 0x114 SWAP2 SWAP1 PUSH3 0x27C JUMP JUMPDEST PUSH1 0x4 DUP2 SWAP1 SSTORE POP POP POP POP POP POP POP PUSH3 0x2B7 JUMP JUMPDEST PUSH1 0x0 DUP1 REVERT JUMPDEST PUSH1 0x0 DUP2 SWAP1 POP SWAP2 SWAP1 POP JUMP JUMPDEST PUSH3 0x140 DUP2 PUSH3 0x12B JUMP JUMPDEST DUP2 EQ PUSH3 0x14C JUMPI PUSH1 0x0 DUP1 REVERT JUMPDEST POP JUMP JUMPDEST PUSH1 0x0 DUP2 MLOAD SWAP1 POP PUSH3 0x160 DUP2 PUSH3 0x135 JUMP JUMPDEST SWAP3 SWAP2 POP POP JUMP JUMPDEST PUSH1 0x0 DUP1 PUSH1 0x0 DUP1 PUSH1 0x0 DUP1 PUSH1 0xC0 DUP8 DUP10 SUB SLT ISZERO PUSH3 0x186 JUMPI PUSH3 0x185 PUSH3 0x126 JUMP JUMPDEST JUMPDEST PUSH1 0x0 PUSH3 0x196 DUP10 DUP3 DUP11 ADD PUSH3 0x14F JUMP JUMPDEST SWAP7 POP POP PUSH1 0x20 PUSH3 0x1A9 DUP10 DUP3 DUP11 ADD PUSH3 0x14F JUMP JUMPDEST SWAP6 POP POP PUSH1 0x40 PUSH3 0x1BC DUP10 DUP3 DUP11 ADD PUSH3 0x14F JUMP JUMPDEST SWAP5 POP POP PUSH1 0x60 PUSH3 0x1CF DUP10 DUP3 DUP11 ADD PUSH3 0x14F JUMP JUMPDEST SWAP4 POP POP PUSH1 0x80 PUSH3 0x1E2 DUP10 DUP3 DUP11 ADD PUSH3 0x14F JUMP JUMPDEST SWAP3 POP POP PUSH1 0xA0 PUSH3 0x1F5 DUP10 DUP3 DUP11 ADD PUSH3 0x14F JUMP JUMPDEST SWAP2 POP POP SWAP3 SWAP6 POP SWAP3 SWAP6 POP SWAP3 SWAP6 JUMP JUMPDEST PUSH32 0x4E487B7100000000000000000000000000000000000000000000000000000000 PUSH1 0x0 MSTORE PUSH1 0x11 PUSH1 0x4 MSTORE PUSH1 0x24 PUSH1 0x0 REVERT JUMPDEST PUSH1 0x0 PUSH3 0x23E DUP3 PUSH3 0x12B JUMP JUMPDEST SWAP2 POP PUSH3 0x24B DUP4 PUSH3 0x12B JUMP JUMPDEST SWAP3 POP DUP3 DUP3 MUL PUSH3 0x25B DUP2 PUSH3 0x12B JUMP JUMPDEST SWAP2 POP DUP3 DUP3 DIV DUP5 EQ DUP4 ISZERO OR PUSH3 0x275 JUMPI PUSH3 0x274 PUSH3 0x202 JUMP JUMPDEST JUMPDEST POP SWAP3 SWAP2 POP POP JUMP JUMPDEST PUSH1 0x0 PUSH3 0x289 DUP3 PUSH3 0x12B JUMP JUMPDEST SWAP2 POP PUSH3 0x296 DUP4 PUSH3 0x12B JUMP JUMPDEST SWAP3 POP DUP3 DUP3 ADD SWAP1 POP DUP1 DUP3 GT ISZERO PUSH3 0x2B1 JUMPI PUSH3 0x2B0 PUSH3 0x202 JUMP JUMPDEST JUMPDEST SWAP3 SWAP2 POP POP JUMP JUMPDEST PUSH2 0xC67 DUP1 PUSH3 0x2C7 PUSH1 0x0 CODECOPY PUSH1 0x0 RETURN INVALID PUSH1 0x80 PUSH1 0x40 MSTORE PUSH1 0x4 CALLDATASIZE LT PUSH2 0x7F JUMPI PUSH1 0x0 CALLDATALOAD PUSH1 0xE0 SHR DUP1 PUSH4 0x8DA5CB5B GT PUSH2 0x4E JUMPI DUP1 PUSH4 0x8DA5CB5B EQ PUSH2 0x1A7 JUMPI DUP1 PUSH4 0x953B8FB8 EQ PUSH2 0x1D2 JUMPI DUP1 PUSH4 0xCC6CB19A EQ PUSH2 0x1FD JUMPI DUP1 PUSH4 0xCE1B088A EQ PUSH2 0x23A JUMPI PUSH2 0x138 JUMP JUMPDEST DUP1 PUSH4 0x159F0136 EQ PUSH2 0x13D JUMPI DUP1 PUSH4 0x4BF71729 EQ PUSH2 0x147 JUMPI DUP1 PUSH4 0x590E1AE3 EQ PUSH2 0x172 JUMPI DUP1 PUSH4 0x5958611E EQ PUSH2 0x17C JUMPI PUSH2 0x138 JUMP JUMPDEST CALLDATASIZE PUSH2 0x138 JUMPI PUSH1 0x4 SLOAD TIMESTAMP LT PUSH2 0xC8 JUMPI PUSH1 0x40 MLOAD PUSH32 0x8C379A000000000000000000000000000000000000000000000000000000000 DUP2 MSTORE PUSH1 0x4 ADD PUSH2 0xBF SWAP1 PUSH2 0x832 JUMP JUMPDEST PUSH1 0x40 MLOAD DUP1 SWAP2 SUB SWAP1 REVERT JUMPDEST CALLVALUE PUSH1 0x2 PUSH1 0x0 CALLER PUSH20 0xFFFFFFFFFFFFFFFFFFFFFFFFFFFFFFFFFFFFFFFF AND PUSH20 0xFFFFFFFFFFFFFFFFFFFFFFFFFFFFFFFFFFFFFFFF AND DUP2 MSTORE PUSH1 0x20 ADD SWAP1 DUP2 MSTORE PUSH1 0x20 ADD PUSH1 0x0 KECCAK256 PUSH1 0x0 DUP3 DUP3 SLOAD PUSH2 0x117 SWAP2 SWAP1 PUSH2 0x88B JUMP JUMPDEST SWAP3 POP POP DUP2 SWAP1 SSTORE POP CALLVALUE PUSH1 0x3 PUSH1 0x0 DUP3 DUP3 SLOAD PUSH2 0x130 SWAP2 SWAP1 PUSH2 0x88B JUMP JUMPDEST SWAP3 POP POP DUP2 SWAP1 SSTORE STOP JUMPDEST PUSH1 0x0 DUP1 REVERT JUMPDEST PUSH2 0x145 PUSH2 0x244 JUMP JUMPDEST STOP JUMPDEST CALLVALUE DUP1 ISZERO PUSH2 0x153 JUMPI PUSH1 0x0 DUP1 REVERT JUMPDEST POP PUSH2 0x15C PUSH2 0x3DD JUMP JUMPDEST PUSH1 0x40 MLOAD PUSH2 0x169 SWAP2 SWAP1 PUSH2 0x8CE JUMP JUMPDEST PUSH1 0x40 MLOAD DUP1 SWAP2 SUB SWAP1 RETURN JUMPDEST PUSH2 0x17A PUSH2 0x424 JUMP JUMPDEST STOP JUMPDEST CALLVALUE DUP1 ISZERO PUSH2 0x188 JUMPI PUSH1 0x0 DUP1 REVERT JUMPDEST POP PUSH2 0x191 PUSH2 0x603 JUMP JUMPDEST PUSH1 0x40 MLOAD PUSH2 0x19E SWAP2 SWAP1 PUSH2 0x8CE JUMP JUMPDEST PUSH1 0x40 MLOAD DUP1 SWAP2 SUB SWAP1 RETURN JUMPDEST CALLVALUE DUP1 ISZERO PUSH2 0x1B3 JUMPI PUSH1 0x0 DUP1 REVERT JUMPDEST POP PUSH2 0x1BC PUSH2 0x609 JUMP JUMPDEST PUSH1 0x40 MLOAD PUSH2 0x1C9 SWAP2 SWAP1 PUSH2 0x92A JUMP JUMPDEST PUSH1 0x40 MLOAD DUP1 SWAP2 SUB SWAP1 RETURN JUMPDEST CALLVALUE DUP1 ISZERO PUSH2 0x1DE JUMPI PUSH1 0x0 DUP1 REVERT JUMPDEST POP PUSH2 0x1E7 PUSH2 0x62F JUMP JUMPDEST PUSH1 0x40 MLOAD PUSH2 0x1F4 SWAP2 SWAP1 PUSH2 0x8CE JUMP JUMPDEST PUSH1 0x40 MLOAD DUP1 SWAP2 SUB SWAP1 RETURN JUMPDEST CALLVALUE DUP1 ISZERO PUSH2 0x209 JUMPI PUSH1 0x0 DUP1 REVERT JUMPDEST POP PUSH2 0x224 PUSH1 0x4 DUP1 CALLDATASIZE SUB DUP2 ADD SWAP1 PUSH2 0x21F SWAP2 SWAP1 PUSH2 0x976 JUMP JUMPDEST PUSH2 0x635 JUMP JUMPDEST PUSH1 0x40 MLOAD PUSH2 0x231 SWAP2 SWAP1 PUSH2 0x8CE JUMP JUMPDEST PUSH1 0x40 MLOAD DUP1 SWAP2 SUB SWAP1 RETURN JUMPDEST PUSH2 0x242 PUSH2 0x64D JUMP JUMPDEST STOP JUMPDEST PUSH1 0x4 SLOAD TIMESTAMP LT PUSH2 0x288 JUMPI PUSH1 0x40 MLOAD PUSH32 0x8C379A000000000000000000000000000000000000000000000000000000000 DUP2 MSTORE PUSH1 0x4 ADD PUSH2 0x27F SWAP1 PUSH2 0x832 JUMP JUMPDEST PUSH1 0x40 MLOAD DUP1 SWAP2 SUB SWAP1 REVERT JUMPDEST PUSH1 0x0 PUSH1 0x2 PUSH1 0x0 CALLER PUSH20 0xFFFFFFFFFFFFFFFFFFFFFFFFFFFFFFFFFFFFFFFF AND PUSH20 0xFFFFFFFFFFFFFFFFFFFFFFFFFFFFFFFFFFFFFFFF AND DUP2 MSTORE PUSH1 0x20 ADD SWAP1 DUP2 MSTORE PUSH1 0x20 ADD PUSH1 0x0 KECCAK256 SLOAD GT PUSH2 0x30A JUMPI PUSH1 0x40 MLOAD PUSH32 0x8C379A000000000000000000000000000000000000000000000000000000000 DUP2 MSTORE PUSH1 0x4 ADD PUSH2 0x301 SWAP1 PUSH2 0xA15 JUMP JUMPDEST PUSH1 0x40 MLOAD DUP1 SWAP2 SUB SWAP1 REVERT JUMPDEST PUSH1 0x0 PUSH1 0x2 PUSH1 0x0 CALLER PUSH20 0xFFFFFFFFFFFFFFFFFFFFFFFFFFFFFFFFFFFFFFFF AND PUSH20 0xFFFFFFFFFFFFFFFFFFFFFFFFFFFFFFFFFFFFFFFF AND DUP2 MSTORE PUSH1 0x20 ADD SWAP1 DUP2 MSTORE PUSH1 0x20 ADD PUSH1 0x0 KECCAK256 SLOAD SWAP1 POP PUSH1 0x0 PUSH1 0x2 PUSH1 0x0 CALLER PUSH20 0xFFFFFFFFFFFFFFFFFFFFFFFFFFFFFFFFFFFFFFFF AND PUSH20 0xFFFFFFFFFFFFFFFFFFFFFFFFFFFFFFFFFFFFFFFF AND DUP2 MSTORE PUSH1 0x20 ADD SWAP1 DUP2 MSTORE PUSH1 0x20 ADD PUSH1 0x0 KECCAK256 DUP2 SWAP1 SSTORE POP CALLER PUSH20 0xFFFFFFFFFFFFFFFFFFFFFFFFFFFFFFFFFFFFFFFF AND PUSH2 0x8FC DUP3 SWAP1 DUP2 ISZERO MUL SWAP1 PUSH1 0x40 MLOAD PUSH1 0x0 PUSH1 0x40 MLOAD DUP1 DUP4 SUB DUP2 DUP6 DUP9 DUP9 CALL SWAP4 POP POP POP POP ISZERO DUP1 ISZERO PUSH2 0x3D9 JUMPI RETURNDATASIZE PUSH1 0x0 DUP1 RETURNDATACOPY RETURNDATASIZE PUSH1 0x0 REVERT JUMPDEST POP POP JUMP JUMPDEST PUSH1 0x0 PUSH1 0x2 PUSH1 0x0 CALLER PUSH20 0xFFFFFFFFFFFFFFFFFFFFFFFFFFFFFFFFFFFFFFFF AND PUSH20 0xFFFFFFFFFFFFFFFFFFFFFFFFFFFFFFFFFFFFFFFF AND DUP2 MSTORE PUSH1 0x20 ADD SWAP1 DUP2 MSTORE PUSH1 0x20 ADD PUSH1 0x0 KECCAK256 SLOAD SWAP1 POP SWAP1 JUMP JUMPDEST PUSH1 0x4 SLOAD TIMESTAMP GT PUSH2 0x468 JUMPI PUSH1 0x40 MLOAD PUSH32 0x8C379A000000000000000000000000000000000000000000000000000000000 DUP2 MSTORE PUSH1 0x4 ADD PUSH2 0x45F SWAP1 PUSH2 0xA81 JUMP JUMPDEST PUSH1 0x40 MLOAD DUP1 SWAP2 SUB SWAP1 REVERT JUMPDEST PUSH1 0x0 SLOAD PUSH1 0x3 SLOAD LT PUSH2 0x4AE JUMPI PUSH1 0x40 MLOAD PUSH32 0x8C379A000000000000000000000000000000000000000000000000000000000 DUP2 MSTORE PUSH1 0x4 ADD PUSH2 0x4A5 SWAP1 PUSH2 0xAED JUMP JUMPDEST PUSH1 0x40 MLOAD DUP1 SWAP2 SUB SWAP1 REVERT JUMPDEST PUSH1 0x0 PUSH1 0x2 PUSH1 0x0 CALLER PUSH20 0xFFFFFFFFFFFFFFFFFFFFFFFFFFFFFFFFFFFFFFFF AND PUSH20 0xFFFFFFFFFFFFFFFFFFFFFFFFFFFFFFFFFFFFFFFF AND DUP2 MSTORE PUSH1 0x20 ADD SWAP1 DUP2 MSTORE PUSH1 0x20 ADD PUSH1 0x0 KECCAK256 SLOAD GT PUSH2 0x530 JUMPI PUSH1 0x40 MLOAD PUSH32 0x8C379A000000000000000000000000000000000000000000000000000000000 DUP2 MSTORE PUSH1 0x4 ADD PUSH2 0x527 SWAP1 PUSH2 0xA15 JUMP JUMPDEST PUSH1 0x40 MLOAD DUP1 SWAP2 SUB SWAP1 REVERT JUMPDEST PUSH1 0x0 PUSH1 0x2 PUSH1 0x0 CALLER PUSH20 0xFFFFFFFFFFFFFFFFFFFFFFFFFFFFFFFFFFFFFFFF AND PUSH20 0xFFFFFFFFFFFFFFFFFFFFFFFFFFFFFFFFFFFFFFFF AND DUP2 MSTORE PUSH1 0x20 ADD SWAP1 DUP2 MSTORE PUSH1 0x20 ADD PUSH1 0x0 KECCAK256 SLOAD SWAP1 POP PUSH1 0x0 PUSH1 0x2 PUSH1 0x0 CALLER PUSH20 0xFFFFFFFFFFFFFFFFFFFFFFFFFFFFFFFFFFFFFFFF AND PUSH20 0xFFFFFFFFFFFFFFFFFFFFFFFFFFFFFFFFFFFFFFFF AND DUP2 MSTORE PUSH1 0x20 ADD SWAP1 DUP2 MSTORE PUSH1 0x20 ADD PUSH1 0x0 KECCAK256 DUP2 SWAP1 SSTORE POP CALLER PUSH20 0xFFFFFFFFFFFFFFFFFFFFFFFFFFFFFFFFFFFFFFFF AND PUSH2 0x8FC DUP3 SWAP1 DUP2 ISZERO MUL SWAP1 PUSH1 0x40 MLOAD PUSH1 0x0 PUSH1 0x40 MLOAD DUP1 DUP4 SUB DUP2 DUP6 DUP9 DUP9 CALL SWAP4 POP POP POP POP ISZERO DUP1 ISZERO PUSH2 0x5FF JUMPI RETURNDATASIZE PUSH1 0x0 DUP1 RETURNDATACOPY RETURNDATASIZE PUSH1 0x0 REVERT JUMPDEST POP POP JUMP JUMPDEST PUSH1 0x4 SLOAD DUP2 JUMP JUMPDEST PUSH1 0x1 PUSH1 0x0 SWAP1 SLOAD SWAP1 PUSH2 0x100 EXP SWAP1 DIV PUSH20 0xFFFFFFFFFFFFFFFFFFFFFFFFFFFFFFFFFFFFFFFF AND DUP2 JUMP JUMPDEST PUSH1 0x0 SLOAD DUP2 JUMP JUMPDEST PUSH1 0x2 PUSH1 0x20 MSTORE DUP1 PUSH1 0x0 MSTORE PUSH1 0x40 PUSH1 0x0 KECCAK256 PUSH1 0x0 SWAP2 POP SWAP1 POP SLOAD DUP2 JUMP JUMPDEST PUSH1 0x1 PUSH1 0x0 SWAP1 SLOAD SWAP1 PUSH2 0x100 EXP SWAP1 DIV PUSH20 0xFFFFFFFFFFFFFFFFFFFFFFFFFFFFFFFFFFFFFFFF AND PUSH20 0xFFFFFFFFFFFFFFFFFFFFFFFFFFFFFFFFFFFFFFFF AND CALLER PUSH20 0xFFFFFFFFFFFFFFFFFFFFFFFFFFFFFFFFFFFFFFFF AND EQ PUSH2 0x6DD JUMPI PUSH1 0x40 MLOAD PUSH32 0x8C379A000000000000000000000000000000000000000000000000000000000 DUP2 MSTORE PUSH1 0x4 ADD PUSH2 0x6D4 SWAP1 PUSH2 0xB7F JUMP JUMPDEST PUSH1 0x40 MLOAD DUP1 SWAP2 SUB SWAP1 REVERT JUMPDEST PUSH1 0x0 SLOAD PUSH1 0x3 SLOAD LT ISZERO PUSH2 0x724 JUMPI PUSH1 0x40 MLOAD PUSH32 0x8C379A000000000000000000000000000000000000000000000000000000000 DUP2 MSTORE PUSH1 0x4 ADD PUSH2 0x71B SWAP1 PUSH2 0xC11 JUMP JUMPDEST PUSH1 0x40 MLOAD DUP1 SWAP2 SUB SWAP1 REVERT JUMPDEST PUSH1 0x4 SLOAD TIMESTAMP GT PUSH2 0x768 JUMPI PUSH1 0x40 MLOAD PUSH32 0x8C379A000000000000000000000000000000000000000000000000000000000 DUP2 MSTORE PUSH1 0x4 ADD PUSH2 0x75F SWAP1 PUSH2 0xA81 JUMP JUMPDEST PUSH1 0x40 MLOAD DUP1 SWAP2 SUB SWAP1 REVERT JUMPDEST PUSH1 0x1 PUSH1 0x0 SWAP1 SLOAD SWAP1 PUSH2 0x100 EXP SWAP1 DIV PUSH20 0xFFFFFFFFFFFFFFFFFFFFFFFFFFFFFFFFFFFFFFFF AND PUSH20 0xFFFFFFFFFFFFFFFFFFFFFFFFFFFFFFFFFFFFFFFF AND PUSH2 0x8FC PUSH1 0x3 SLOAD SWAP1 DUP2 ISZERO MUL SWAP1 PUSH1 0x40 MLOAD PUSH1 0x0 PUSH1 0x40 MLOAD DUP1 DUP4 SUB DUP2 DUP6 DUP9 DUP9 CALL SWAP4 POP POP POP POP ISZERO DUP1 ISZERO PUSH2 0x7D2 JUMPI RETURNDATASIZE PUSH1 0x0 DUP1 RETURNDATACOPY RETURNDATASIZE PUSH1 0x0 REVERT JUMPDEST POP JUMP JUMPDEST PUSH1 0x0 DUP3 DUP3 MSTORE PUSH1 0x20 DUP3 ADD SWAP1 POP SWAP3 SWAP2 POP POP JUMP JUMPDEST PUSH32 0x546869732066756E64696E67206973206F766572000000000000000000000000 PUSH1 0x0 DUP3 ADD MSTORE POP JUMP JUMPDEST PUSH1 0x0 PUSH2 0x81C PUSH1 0x14 DUP4 PUSH2 0x7D5 JUMP JUMPDEST SWAP2 POP PUSH2 0x827 DUP3 PUSH2 0x7E6 JUMP JUMPDEST PUSH1 0x20 DUP3 ADD SWAP1 POP SWAP2 SWAP1 POP JUMP JUMPDEST PUSH1 0x0 PUSH1 0x20 DUP3 ADD SWAP1 POP DUP2 DUP2 SUB PUSH1 0x0 DUP4 ADD MSTORE PUSH2 0x84B DUP2 PUSH2 0x80F JUMP JUMPDEST SWAP1 POP SWAP2 SWAP1 POP JUMP JUMPDEST PUSH1 0x0 DUP2 SWAP1 POP SWAP2 SWAP1 POP JUMP JUMPDEST PUSH32 0x4E487B7100000000000000000000000000000000000000000000000000000000 PUSH1 0x0 MSTORE PUSH1 0x11 PUSH1 0x4 MSTORE PUSH1 0x24 PUSH1 0x0 REVERT JUMPDEST PUSH1 0x0 PUSH2 0x896 DUP3 PUSH2 0x852 JUMP JUMPDEST SWAP2 POP PUSH2 0x8A1 DUP4 PUSH2 0x852 JUMP JUMPDEST SWAP3 POP DUP3 DUP3 ADD SWAP1 POP DUP1 DUP3 GT ISZERO PUSH2 0x8B9 JUMPI PUSH2 0x8B8 PUSH2 0x85C JUMP JUMPDEST JUMPDEST SWAP3 SWAP2 POP POP JUMP JUMPDEST PUSH2 0x8C8 DUP2 PUSH2 0x852 JUMP JUMPDEST DUP3 MSTORE POP POP JUMP JUMPDEST PUSH1 0x0 PUSH1 0x20 DUP3 ADD SWAP1 POP PUSH2 0x8E3 PUSH1 0x0 DUP4 ADD DUP5 PUSH2 0x8BF JUMP JUMPDEST SWAP3 SWAP2 POP POP JUMP JUMPDEST PUSH1 0x0 PUSH20 0xFFFFFFFFFFFFFFFFFFFFFFFFFFFFFFFFFFFFFFFF DUP3 AND SWAP1 POP SWAP2 SWAP1 POP JUMP JUMPDEST PUSH1 0x0 PUSH2 0x914 DUP3 PUSH2 0x8E9 JUMP JUMPDEST SWAP1 POP SWAP2 SWAP1 POP JUMP JUMPDEST PUSH2 0x924 DUP2 PUSH2 0x909 JUMP JUMPDEST DUP3 MSTORE POP POP JUMP JUMPDEST PUSH1 0x0 PUSH1 0x20 DUP3 ADD SWAP1 POP PUSH2 0x93F PUSH1 0x0 DUP4 ADD DUP5 PUSH2 0x91B JUMP JUMPDEST SWAP3 SWAP2 POP POP JUMP JUMPDEST PUSH1 0x0 DUP1 REVERT JUMPDEST PUSH2 0x953 DUP2 PUSH2 0x909 JUMP JUMPDEST DUP2 EQ PUSH2 0x95E JUMPI PUSH1 0x0 DUP1 REVERT JUMPDEST POP JUMP JUMPDEST PUSH1 0x0 DUP2 CALLDATALOAD SWAP1 POP PUSH2 0x970 DUP2 PUSH2 0x94A JUMP JUMPDEST SWAP3 SWAP2 POP POP JUMP JUMPDEST PUSH1 0x0 PUSH1 0x20 DUP3 DUP5 SUB SLT ISZERO PUSH2 0x98C JUMPI PUSH2 0x98B PUSH2 0x945 JUMP JUMPDEST JUMPDEST PUSH1 0x0 PUSH2 0x99A DUP5 DUP3 DUP6 ADD PUSH2 0x961 JUMP JUMPDEST SWAP2 POP POP SWAP3 SWAP2 POP POP JUMP JUMPDEST PUSH32 0x596F7520646964206E6F7420646F6E61746520746F20746869732066756E6469 PUSH1 0x0 DUP3 ADD MSTORE PUSH32 0x6E67000000000000000000000000000000000000000000000000000000000000 PUSH1 0x20 DUP3 ADD MSTORE POP JUMP JUMPDEST PUSH1 0x0 PUSH2 0x9FF PUSH1 0x22 DUP4 PUSH2 0x7D5 JUMP JUMPDEST SWAP2 POP PUSH2 0xA0A DUP3 PUSH2 0x9A3 JUMP JUMPDEST PUSH1 0x40 DUP3 ADD SWAP1 POP SWAP2 SWAP1 POP JUMP JUMPDEST PUSH1 0x0 PUSH1 0x20 DUP3 ADD SWAP1 POP DUP2 DUP2 SUB PUSH1 0x0 DUP4 ADD MSTORE PUSH2 0xA2E DUP2 PUSH2 0x9F2 JUMP JUMPDEST SWAP1 POP SWAP2 SWAP1 POP JUMP JUMPDEST PUSH32 0x546869732066756E64696E67206973206E6F74206F7665722079657400000000 PUSH1 0x0 DUP3 ADD MSTORE POP JUMP JUMPDEST PUSH1 0x0 PUSH2 0xA6B PUSH1 0x1C DUP4 PUSH2 0x7D5 JUMP JUMPDEST SWAP2 POP PUSH2 0xA76 DUP3 PUSH2 0xA35 JUMP JUMPDEST PUSH1 0x20 DUP3 ADD SWAP1 POP SWAP2 SWAP1 POP JUMP JUMPDEST PUSH1 0x0 PUSH1 0x20 DUP3 ADD SWAP1 POP DUP2 DUP2 SUB PUSH1 0x0 DUP4 ADD MSTORE PUSH2 0xA9A DUP2 PUSH2 0xA5E JUMP JUMPDEST SWAP1 POP SWAP2 SWAP1 POP JUMP JUMPDEST PUSH32 0x5468652066756E64696E672064696420726561636865642074686520676F616C PUSH1 0x0 DUP3 ADD MSTORE POP JUMP JUMPDEST PUSH1 0x0 PUSH2 0xAD7 PUSH1 0x20 DUP4 PUSH2 0x7D5 JUMP JUMPDEST SWAP2 POP PUSH2 0xAE2 DUP3 PUSH2 0xAA1 JUMP JUMPDEST PUSH1 0x20 DUP3 ADD SWAP1 POP SWAP2 SWAP1 POP JUMP JUMPDEST PUSH1 0x0 PUSH1 0x20 DUP3 ADD SWAP1 POP DUP2 DUP2 SUB PUSH1 0x0 DUP4 ADD MSTORE PUSH2 0xB06 DUP2 PUSH2 0xACA JUMP JUMPDEST SWAP1 POP SWAP2 SWAP1 POP JUMP JUMPDEST PUSH32 0x46756E64732077696C6C206F6E6C792062652072656C656173656420746F2074 PUSH1 0x0 DUP3 ADD MSTORE PUSH32 0x6865206F776E6572000000000000000000000000000000000000000000000000 PUSH1 0x20 DUP3 ADD MSTORE POP JUMP JUMPDEST PUSH1 0x0 PUSH2 0xB69 PUSH1 0x28 DUP4 PUSH2 0x7D5 JUMP JUMPDEST SWAP2 POP PUSH2 0xB74 DUP3 PUSH2 0xB0D JUMP JUMPDEST PUSH1 0x40 DUP3 ADD SWAP1 POP SWAP2 SWAP1 POP JUMP JUMPDEST PUSH1 0x0 PUSH1 0x20 DUP3 ADD SWAP1 POP DUP2 DUP2 SUB PUSH1 0x0 DUP4 ADD MSTORE PUSH2 0xB98 DUP2 PUSH2 0xB5C JUMP JUMPDEST SWAP1 POP SWAP2 SWAP1 POP JUMP JUMPDEST PUSH32 0x5468652066756E64696E6720646964206E6F742072656163682074686520676F PUSH1 0x0 DUP3 ADD MSTORE PUSH32 0x616C000000000000000000000000000000000000000000000000000000000000 PUSH1 0x20 DUP3 ADD MSTORE POP JUMP JUMPDEST PUSH1 0x0 PUSH2 0xBFB PUSH1 0x22 DUP4 PUSH2 0x7D5 JUMP JUMPDEST SWAP2 POP PUSH2 0xC06 DUP3 PUSH2 0xB9F JUMP JUMPDEST PUSH1 0x40 DUP3 ADD SWAP1 POP SWAP2 SWAP1 POP JUMP JUMPDEST PUSH1 0x0 PUSH1 0x20 DUP3 ADD SWAP1 POP DUP2 DUP2 SUB PUSH1 0x0 DUP4 ADD MSTORE PUSH2 0xC2A DUP2 PUSH2 0xBEE JUMP JUMPDEST SWAP1 POP SWAP2 SWAP1 POP JUMP INVALID LOG2 PUSH5 0x6970667358 0x22 SLT KECCAK256 PUSH29 0x4544CC50AFC2723D3322651699475A95CE3ED3F194393C2A90F484666B 0xD2 0xC2 PUSH5 0x736F6C6343 STOP ADDMOD SGT STOP CALLER "
		},
		"gasEstimates": {
			"creation": {
				"codeDepositCost": "635000",
				"executionCost": "infinite",
				"totalCost": "infinite"
			},
			"external": {
				"cancleFund()": "infinite",
				"donations(address)": "2858",
				"finishTime()": "2496",
				"getDonation()": "2549",
				"owner()": "2514",
				"refund()": "infinite",
				"targetAmount()": "2451",
				"withdrawDonations()": "infinite"
			}
		},
		"methodIdentifiers": {
			"cancleFund()": "159f0136",
			"donations(address)": "cc6cb19a",
			"finishTime()": "5958611e",
			"getDonation()": "4bf71729",
			"owner()": "8da5cb5b",
			"refund()": "590e1ae3",
			"targetAmount()": "953b8fb8",
			"withdrawDonations()": "ce1b088a"
		}
	},
	"abi": [
		{
			"inputs": [
				{
					"internalType": "uint256",
					"name": "_targetAmount",
					"type": "uint256"
				},
				{
					"internalType": "uint256",
					"name": "_weeks",
					"type": "uint256"
				},
				{
					"internalType": "uint256",
					"name": "_days",
					"type": "uint256"
				},
				{
					"internalType": "uint256",
					"name": "_hours",
					"type": "uint256"
				},
				{
					"internalType": "uint256",
					"name": "_minutes",
					"type": "uint256"
				},
				{
					"internalType": "uint256",
					"name": "_seconds",
					"type": "uint256"
				}
			],
			"stateMutability": "nonpayable",
			"type": "constructor"
		},
		{
			"inputs": [],
			"name": "cancleFund",
			"outputs": [],
			"stateMutability": "payable",
			"type": "function"
		},
		{
			"inputs": [
				{
					"internalType": "address",
					"name": "",
					"type": "address"
				}
			],
			"name": "donations",
			"outputs": [
				{
					"internalType": "uint256",
					"name": "",
					"type": "uint256"
				}
			],
			"stateMutability": "view",
			"type": "function"
		},
		{
			"inputs": [],
			"name": "finishTime",
			"outputs": [
				{
					"internalType": "uint256",
					"name": "",
					"type": "uint256"
				}
			],
			"stateMutability": "view",
			"type": "function"
		},
		{
			"inputs": [],
			"name": "getDonation",
			"outputs": [
				{
					"internalType": "uint256",
					"name": "",
					"type": "uint256"
				}
			],
			"stateMutability": "view",
			"type": "function"
		},
		{
			"inputs": [],
			"name": "owner",
			"outputs": [
				{
					"internalType": "address",
					"name": "",
					"type": "address"
				}
			],
			"stateMutability": "view",
			"type": "function"
		},
		{
			"inputs": [],
			"name": "refund",
			"outputs": [],
			"stateMutability": "payable",
			"type": "function"
		},
		{
			"inputs": [],
			"name": "targetAmount",
			"outputs": [
				{
					"internalType": "uint256",
					"name": "",
					"type": "uint256"
				}
			],
			"stateMutability": "view",
			"type": "function"
		},
		{
			"inputs": [],
			"name": "withdrawDonations",
			"outputs": [],
			"stateMutability": "payable",
			"type": "function"
		},
		{
			"stateMutability": "payable",
			"type": "receive"
		}
	]
}