{
	"contracts/Fundraising.sol": {
		"Fundraising": {
			"abi": [
				{
					"inputs": [
						{
							"internalType": "uint256",
							"name": "_targetAmount",
							"type": "uint256"
						},
						{
							"internalType": "uint256",
							"name": "_weeks",
							"type": "uint256"
						},
						{
							"internalType": "uint256",
							"name": "_days",
							"type": "uint256"
						},
						{
							"internalType": "uint256",
							"name": "_hours",
							"type": "uint256"
						},
						{
							"internalType": "uint256",
							"name": "_minutes",
							"type": "uint256"
						},
						{
							"internalType": "uint256",
							"name": "_seconds",
							"type": "uint256"
						}
					],
					"stateMutability": "nonpayable",
					"type": "constructor"
				},
				{
					"inputs": [],
					"name": "cancleFund",
					"outputs": [],
					"stateMutability": "payable",
					"type": "function"
				},
				{
					"inputs": [
						{
							"internalType": "address",
							"name": "",
							"type": "address"
						}
					],
					"name": "donations",
					"outputs": [
						{
							"internalType": "uint256",
							"name": "",
							"type": "uint256"
						}
					],
					"stateMutability": "view",
					"type": "function"
				},
				{
					"inputs": [],
					"name": "finishTime",
					"outputs": [
						{
							"internalType": "uint256",
							"name": "",
							"type": "uint256"
						}
					],
					"stateMutability": "view",
					"type": "function"
				},
				{
					"inputs": [],
					"name": "getDonation",
					"outputs": [
						{
							"internalType": "uint256",
							"name": "",
							"type": "uint256"
						}
					],
					"stateMutability": "view",
					"type": "function"
				},
				{
					"inputs": [],
					"name": "owner",
					"outputs": [
						{
							"internalType": "address",
							"name": "",
							"type": "address"
						}
					],
					"stateMutability": "view",
					"type": "function"
				},
				{
					"inputs": [],
					"name": "refund",
					"outputs": [],
					"stateMutability": "payable",
					"type": "function"
				},
				{
					"inputs": [],
					"name": "targetAmount",
					"outputs": [
						{
							"internalType": "uint256",
							"name": "",
							"type": "uint256"
						}
					],
					"stateMutability": "view",
					"type": "function"
				},
				{
					"inputs": [],
					"name": "withdrawDonations",
					"outputs": [],
					"stateMutability": "payable",
					"type": "function"
				},
				{
					"stateMutability": "payable",
					"type": "receive"
				}
			],
			"devdoc": {
				"kind": "dev",
				"methods": {},
				"version": 1
			},
			"evm": {
				"assembly": "    /* \"contracts/Fundraising.sol\":61:1937  contract Fundraising {... */\n  mstore(0x40, 0x80)\n    /* \"contracts/Fundraising.sol\":250:578  constructor(uint256 _targetAmount, uint _weeks, uint _days, uint _hours, uint _minutes, uint _seconds) {... */\n  callvalue\n  dup1\n  iszero\n  tag_1\n  jumpi\n  0x00\n  dup1\n  revert\ntag_1:\n  pop\n  mload(0x40)\n  sub(codesize, bytecodeSize)\n  dup1\n  bytecodeSize\n  dup4\n  codecopy\n  dup2\n  dup2\n  add\n  0x40\n  mstore\n  dup2\n  add\n  swap1\n  tag_2\n  swap2\n  swap1\n  tag_3\n  jump\t// in\ntag_2:\n    /* \"contracts/Fundraising.sol\":375:388  _targetAmount */\n  dup6\n    /* \"contracts/Fundraising.sol\":360:372  targetAmount */\n  0x00\n    /* \"contracts/Fundraising.sol\":360:388  targetAmount = _targetAmount */\n  dup2\n  swap1\n  sstore\n  pop\n    /* \"contracts/Fundraising.sol\":403:413  msg.sender */\n  caller\n    /* \"contracts/Fundraising.sol\":395:400  owner */\n  0x01\n  0x00\n    /* \"contracts/Fundraising.sol\":395:413  owner = msg.sender */\n  0x0100\n  exp\n  dup2\n  sload\n  dup2\n  0xffffffffffffffffffffffffffffffffffffffff\n  mul\n  not\n  and\n  swap1\n  dup4\n  0xffffffffffffffffffffffffffffffffffffffff\n  and\n  mul\n  or\n  swap1\n  sstore\n  pop\n    /* \"contracts/Fundraising.sol\":435:436  0 */\n  0x00\n    /* \"contracts/Fundraising.sol\":420:432  raisedAmount */\n  0x03\n    /* \"contracts/Fundraising.sol\":420:436  raisedAmount = 0 */\n  dup2\n  swap1\n  sstore\n  pop\n    /* \"contracts/Fundraising.sol\":563:572  1 seconds */\n  0x01\n    /* \"contracts/Fundraising.sol\":552:560  _seconds */\n  dup2\n    /* \"contracts/Fundraising.sol\":552:572  _seconds * 1 seconds */\n  tag_6\n  swap2\n  swap1\n  tag_7\n  jump\t// in\ntag_6:\n    /* \"contracts/Fundraising.sol\":540:549  1 minutes */\n  0x3c\n    /* \"contracts/Fundraising.sol\":529:537  _minutes */\n  dup4\n    /* \"contracts/Fundraising.sol\":529:549  _minutes * 1 minutes */\n  tag_8\n  swap2\n  swap1\n  tag_7\n  jump\t// in\ntag_8:\n    /* \"contracts/Fundraising.sol\":519:526  1 hours */\n  0x0e10\n    /* \"contracts/Fundraising.sol\":510:516  _hours */\n  dup6\n    /* \"contracts/Fundraising.sol\":510:526  _hours * 1 hours */\n  tag_9\n  swap2\n  swap1\n  tag_7\n  jump\t// in\ntag_9:\n    /* \"contracts/Fundraising.sol\":501:507  1 days */\n  0x015180\n    /* \"contracts/Fundraising.sol\":493:498  _days */\n  dup8\n    /* \"contracts/Fundraising.sol\":493:507  _days * 1 days */\n  tag_10\n  swap2\n  swap1\n  tag_7\n  jump\t// in\ntag_10:\n    /* \"contracts/Fundraising.sol\":483:490  1 weeks */\n  0x093a80\n    /* \"contracts/Fundraising.sol\":474:480  _weeks */\n  dup10\n    /* \"contracts/Fundraising.sol\":474:490  _weeks * 1 weeks */\n  tag_11\n  swap2\n  swap1\n  tag_7\n  jump\t// in\ntag_11:\n    /* \"contracts/Fundraising.sol\":456:471  block.timestamp */\n  timestamp\n    /* \"contracts/Fundraising.sol\":456:490  block.timestamp + _weeks * 1 weeks */\n  tag_12\n  swap2\n  swap1\n  tag_13\n  jump\t// in\ntag_12:\n    /* \"contracts/Fundraising.sol\":456:507  block.timestamp + _weeks * 1 weeks + _days * 1 days */\n  tag_14\n  swap2\n  swap1\n  tag_13\n  jump\t// in\ntag_14:\n    /* \"contracts/Fundraising.sol\":456:526  block.timestamp + _weeks * 1 weeks + _days * 1 days + _hours * 1 hours */\n  tag_15\n  swap2\n  swap1\n  tag_13\n  jump\t// in\ntag_15:\n    /* \"contracts/Fundraising.sol\":456:549  block.timestamp + _weeks * 1 weeks + _days * 1 days + _hours * 1 hours + _minutes * 1 minutes */\n  tag_16\n  swap2\n  swap1\n  tag_13\n  jump\t// in\ntag_16:\n    /* \"contracts/Fundraising.sol\":456:572  block.timestamp + _weeks * 1 weeks + _days * 1 days + _hours * 1 hours + _minutes * 1 minutes + _seconds * 1 seconds */\n  tag_17\n  swap2\n  swap1\n  tag_13\n  jump\t// in\ntag_17:\n    /* \"contracts/Fundraising.sol\":443:453  finishTime */\n  0x04\n    /* \"contracts/Fundraising.sol\":443:572  finishTime = block.timestamp + _weeks * 1 weeks + _days * 1 days + _hours * 1 hours + _minutes * 1 minutes + _seconds * 1 seconds */\n  dup2\n  swap1\n  sstore\n  pop\n    /* \"contracts/Fundraising.sol\":250:578  constructor(uint256 _targetAmount, uint _weeks, uint _days, uint _hours, uint _minutes, uint _seconds) {... */\n  pop\n  pop\n  pop\n  pop\n  pop\n  pop\n    /* \"contracts/Fundraising.sol\":61:1937  contract Fundraising {... */\n  jump(tag_18)\n    /* \"#utility.yul\":88:205   */\ntag_20:\n    /* \"#utility.yul\":197:198   */\n  0x00\n    /* \"#utility.yul\":194:195   */\n  dup1\n    /* \"#utility.yul\":187:199   */\n  revert\n    /* \"#utility.yul\":334:411   */\ntag_22:\n    /* \"#utility.yul\":371:378   */\n  0x00\n    /* \"#utility.yul\":400:405   */\n  dup2\n    /* \"#utility.yul\":389:405   */\n  swap1\n  pop\n    /* \"#utility.yul\":334:411   */\n  swap2\n  swap1\n  pop\n  jump\t// out\n    /* \"#utility.yul\":417:539   */\ntag_23:\n    /* \"#utility.yul\":490:514   */\n  tag_32\n    /* \"#utility.yul\":508:513   */\n  dup2\n    /* \"#utility.yul\":490:514   */\n  tag_22\n  jump\t// in\ntag_32:\n    /* \"#utility.yul\":483:488   */\n  dup2\n    /* \"#utility.yul\":480:515   */\n  eq\n    /* \"#utility.yul\":470:533   */\n  tag_33\n  jumpi\n    /* \"#utility.yul\":529:530   */\n  0x00\n    /* \"#utility.yul\":526:527   */\n  dup1\n    /* \"#utility.yul\":519:531   */\n  revert\n    /* \"#utility.yul\":470:533   */\ntag_33:\n    /* \"#utility.yul\":417:539   */\n  pop\n  jump\t// out\n    /* \"#utility.yul\":545:688   */\ntag_24:\n    /* \"#utility.yul\":602:607   */\n  0x00\n    /* \"#utility.yul\":633:639   */\n  dup2\n    /* \"#utility.yul\":627:640   */\n  mload\n    /* \"#utility.yul\":618:640   */\n  swap1\n  pop\n    /* \"#utility.yul\":649:682   */\n  tag_35\n    /* \"#utility.yul\":676:681   */\n  dup2\n    /* \"#utility.yul\":649:682   */\n  tag_23\n  jump\t// in\ntag_35:\n    /* \"#utility.yul\":545:688   */\n  swap3\n  swap2\n  pop\n  pop\n  jump\t// out\n    /* \"#utility.yul\":694:1828   */\ntag_3:\n    /* \"#utility.yul\":809:815   */\n  0x00\n    /* \"#utility.yul\":817:823   */\n  dup1\n    /* \"#utility.yul\":825:831   */\n  0x00\n    /* \"#utility.yul\":833:839   */\n  dup1\n    /* \"#utility.yul\":841:847   */\n  0x00\n    /* \"#utility.yul\":849:855   */\n  dup1\n    /* \"#utility.yul\":898:901   */\n  0xc0\n    /* \"#utility.yul\":886:895   */\n  dup8\n    /* \"#utility.yul\":877:884   */\n  dup10\n    /* \"#utility.yul\":873:896   */\n  sub\n    /* \"#utility.yul\":869:902   */\n  slt\n    /* \"#utility.yul\":866:986   */\n  iszero\n  tag_37\n  jumpi\n    /* \"#utility.yul\":905:984   */\n  tag_38\n  tag_20\n  jump\t// in\ntag_38:\n    /* \"#utility.yul\":866:986   */\ntag_37:\n    /* \"#utility.yul\":1025:1026   */\n  0x00\n    /* \"#utility.yul\":1050:1114   */\n  tag_39\n    /* \"#utility.yul\":1106:1113   */\n  dup10\n    /* \"#utility.yul\":1097:1103   */\n  dup3\n    /* \"#utility.yul\":1086:1095   */\n  dup11\n    /* \"#utility.yul\":1082:1104   */\n  add\n    /* \"#utility.yul\":1050:1114   */\n  tag_24\n  jump\t// in\ntag_39:\n    /* \"#utility.yul\":1040:1114   */\n  swap7\n  pop\n    /* \"#utility.yul\":996:1124   */\n  pop\n    /* \"#utility.yul\":1163:1165   */\n  0x20\n    /* \"#utility.yul\":1189:1253   */\n  tag_40\n    /* \"#utility.yul\":1245:1252   */\n  dup10\n    /* \"#utility.yul\":1236:1242   */\n  dup3\n    /* \"#utility.yul\":1225:1234   */\n  dup11\n    /* \"#utility.yul\":1221:1243   */\n  add\n    /* \"#utility.yul\":1189:1253   */\n  tag_24\n  jump\t// in\ntag_40:\n    /* \"#utility.yul\":1179:1253   */\n  swap6\n  pop\n    /* \"#utility.yul\":1134:1263   */\n  pop\n    /* \"#utility.yul\":1302:1304   */\n  0x40\n    /* \"#utility.yul\":1328:1392   */\n  tag_41\n    /* \"#utility.yul\":1384:1391   */\n  dup10\n    /* \"#utility.yul\":1375:1381   */\n  dup3\n    /* \"#utility.yul\":1364:1373   */\n  dup11\n    /* \"#utility.yul\":1360:1382   */\n  add\n    /* \"#utility.yul\":1328:1392   */\n  tag_24\n  jump\t// in\ntag_41:\n    /* \"#utility.yul\":1318:1392   */\n  swap5\n  pop\n    /* \"#utility.yul\":1273:1402   */\n  pop\n    /* \"#utility.yul\":1441:1443   */\n  0x60\n    /* \"#utility.yul\":1467:1531   */\n  tag_42\n    /* \"#utility.yul\":1523:1530   */\n  dup10\n    /* \"#utility.yul\":1514:1520   */\n  dup3\n    /* \"#utility.yul\":1503:1512   */\n  dup11\n    /* \"#utility.yul\":1499:1521   */\n  add\n    /* \"#utility.yul\":1467:1531   */\n  tag_24\n  jump\t// in\ntag_42:\n    /* \"#utility.yul\":1457:1531   */\n  swap4\n  pop\n    /* \"#utility.yul\":1412:1541   */\n  pop\n    /* \"#utility.yul\":1580:1583   */\n  0x80\n    /* \"#utility.yul\":1607:1671   */\n  tag_43\n    /* \"#utility.yul\":1663:1670   */\n  dup10\n    /* \"#utility.yul\":1654:1660   */\n  dup3\n    /* \"#utility.yul\":1643:1652   */\n  dup11\n    /* \"#utility.yul\":1639:1661   */\n  add\n    /* \"#utility.yul\":1607:1671   */\n  tag_24\n  jump\t// in\ntag_43:\n    /* \"#utility.yul\":1597:1671   */\n  swap3\n  pop\n    /* \"#utility.yul\":1551:1681   */\n  pop\n    /* \"#utility.yul\":1720:1723   */\n  0xa0\n    /* \"#utility.yul\":1747:1811   */\n  tag_44\n    /* \"#utility.yul\":1803:1810   */\n  dup10\n    /* \"#utility.yul\":1794:1800   */\n  dup3\n    /* \"#utility.yul\":1783:1792   */\n  dup11\n    /* \"#utility.yul\":1779:1801   */\n  add\n    /* \"#utility.yul\":1747:1811   */\n  tag_24\n  jump\t// in\ntag_44:\n    /* \"#utility.yul\":1737:1811   */\n  swap2\n  pop\n    /* \"#utility.yul\":1691:1821   */\n  pop\n    /* \"#utility.yul\":694:1828   */\n  swap3\n  swap6\n  pop\n  swap3\n  swap6\n  pop\n  swap3\n  swap6\n  jump\t// out\n    /* \"#utility.yul\":1834:2014   */\ntag_25:\n    /* \"#utility.yul\":1882:1959   */\n  0x4e487b7100000000000000000000000000000000000000000000000000000000\n    /* \"#utility.yul\":1879:1880   */\n  0x00\n    /* \"#utility.yul\":1872:1960   */\n  mstore\n    /* \"#utility.yul\":1979:1983   */\n  0x11\n    /* \"#utility.yul\":1976:1977   */\n  0x04\n    /* \"#utility.yul\":1969:1984   */\n  mstore\n    /* \"#utility.yul\":2003:2007   */\n  0x24\n    /* \"#utility.yul\":2000:2001   */\n  0x00\n    /* \"#utility.yul\":1993:2008   */\n  revert\n    /* \"#utility.yul\":2020:2430   */\ntag_7:\n    /* \"#utility.yul\":2060:2067   */\n  0x00\n    /* \"#utility.yul\":2083:2103   */\n  tag_47\n    /* \"#utility.yul\":2101:2102   */\n  dup3\n    /* \"#utility.yul\":2083:2103   */\n  tag_22\n  jump\t// in\ntag_47:\n    /* \"#utility.yul\":2078:2103   */\n  swap2\n  pop\n    /* \"#utility.yul\":2117:2137   */\n  tag_48\n    /* \"#utility.yul\":2135:2136   */\n  dup4\n    /* \"#utility.yul\":2117:2137   */\n  tag_22\n  jump\t// in\ntag_48:\n    /* \"#utility.yul\":2112:2137   */\n  swap3\n  pop\n    /* \"#utility.yul\":2172:2173   */\n  dup3\n    /* \"#utility.yul\":2169:2170   */\n  dup3\n    /* \"#utility.yul\":2165:2174   */\n  mul\n    /* \"#utility.yul\":2194:2224   */\n  tag_49\n    /* \"#utility.yul\":2212:2223   */\n  dup2\n    /* \"#utility.yul\":2194:2224   */\n  tag_22\n  jump\t// in\ntag_49:\n    /* \"#utility.yul\":2183:2224   */\n  swap2\n  pop\n    /* \"#utility.yul\":2373:2374   */\n  dup3\n    /* \"#utility.yul\":2364:2371   */\n  dup3\n    /* \"#utility.yul\":2360:2375   */\n  div\n    /* \"#utility.yul\":2357:2358   */\n  dup5\n    /* \"#utility.yul\":2354:2376   */\n  eq\n    /* \"#utility.yul\":2334:2335   */\n  dup4\n    /* \"#utility.yul\":2327:2336   */\n  iszero\n    /* \"#utility.yul\":2307:2390   */\n  or\n    /* \"#utility.yul\":2284:2423   */\n  tag_50\n  jumpi\n    /* \"#utility.yul\":2403:2421   */\n  tag_51\n  tag_25\n  jump\t// in\ntag_51:\n    /* \"#utility.yul\":2284:2423   */\ntag_50:\n    /* \"#utility.yul\":2068:2430   */\n  pop\n    /* \"#utility.yul\":2020:2430   */\n  swap3\n  swap2\n  pop\n  pop\n  jump\t// out\n    /* \"#utility.yul\":2436:2627   */\ntag_13:\n    /* \"#utility.yul\":2476:2479   */\n  0x00\n    /* \"#utility.yul\":2495:2515   */\n  tag_53\n    /* \"#utility.yul\":2513:2514   */\n  dup3\n    /* \"#utility.yul\":2495:2515   */\n  tag_22\n  jump\t// in\ntag_53:\n    /* \"#utility.yul\":2490:2515   */\n  swap2\n  pop\n    /* \"#utility.yul\":2529:2549   */\n  tag_54\n    /* \"#utility.yul\":2547:2548   */\n  dup4\n    /* \"#utility.yul\":2529:2549   */\n  tag_22\n  jump\t// in\ntag_54:\n    /* \"#utility.yul\":2524:2549   */\n  swap3\n  pop\n    /* \"#utility.yul\":2572:2573   */\n  dup3\n    /* \"#utility.yul\":2569:2570   */\n  dup3\n    /* \"#utility.yul\":2565:2574   */\n  add\n    /* \"#utility.yul\":2558:2574   */\n  swap1\n  pop\n    /* \"#utility.yul\":2593:2596   */\n  dup1\n    /* \"#utility.yul\":2590:2591   */\n  dup3\n    /* \"#utility.yul\":2587:2597   */\n  gt\n    /* \"#utility.yul\":2584:2620   */\n  iszero\n  tag_55\n  jumpi\n    /* \"#utility.yul\":2600:2618   */\n  tag_56\n  tag_25\n  jump\t// in\ntag_56:\n    /* \"#utility.yul\":2584:2620   */\ntag_55:\n    /* \"#utility.yul\":2436:2627   */\n  swap3\n  swap2\n  pop\n  pop\n  jump\t// out\n    /* \"contracts/Fundraising.sol\":61:1937  contract Fundraising {... */\ntag_18:\n  dataSize(sub_0)\n  dup1\n  dataOffset(sub_0)\n  0x00\n  codecopy\n  0x00\n  return\nstop\n\nsub_0: assembly {\n        /* \"contracts/Fundraising.sol\":61:1937  contract Fundraising {... */\n      mstore(0x40, 0x80)\n      jumpi(tag_1, lt(calldatasize, 0x04))\n      shr(0xe0, calldataload(0x00))\n      dup1\n      0x8da5cb5b\n      gt\n      tag_11\n      jumpi\n      dup1\n      0x8da5cb5b\n      eq\n      tag_7\n      jumpi\n      dup1\n      0x953b8fb8\n      eq\n      tag_8\n      jumpi\n      dup1\n      0xcc6cb19a\n      eq\n      tag_9\n      jumpi\n      dup1\n      0xce1b088a\n      eq\n      tag_10\n      jumpi\n      jump(tag_2)\n    tag_11:\n      dup1\n      0x159f0136\n      eq\n      tag_3\n      jumpi\n      dup1\n      0x4bf71729\n      eq\n      tag_4\n      jumpi\n      dup1\n      0x590e1ae3\n      eq\n      tag_5\n      jumpi\n      dup1\n      0x5958611e\n      eq\n      tag_6\n      jumpi\n      jump(tag_2)\n    tag_1:\n      jumpi(tag_2, calldatasize)\n        /* \"contracts/Fundraising.sol\":644:654  finishTime */\n      sload(0x04)\n        /* \"contracts/Fundraising.sol\":626:641  block.timestamp */\n      timestamp\n        /* \"contracts/Fundraising.sol\":626:654  block.timestamp < finishTime */\n      lt\n        /* \"contracts/Fundraising.sol\":618:679  require(block.timestamp < finishTime, \"This funding is over\") */\n      tag_14\n      jumpi\n      mload(0x40)\n      0x08c379a000000000000000000000000000000000000000000000000000000000\n      dup2\n      mstore\n      0x04\n      add\n      tag_15\n      swap1\n      tag_16\n      jump\t// in\n    tag_15:\n      mload(0x40)\n      dup1\n      swap2\n      sub\n      swap1\n      revert\n    tag_14:\n        /* \"contracts/Fundraising.sol\":713:722  msg.value */\n      callvalue\n        /* \"contracts/Fundraising.sol\":688:697  donations */\n      0x02\n        /* \"contracts/Fundraising.sol\":688:709  donations[msg.sender] */\n      0x00\n        /* \"contracts/Fundraising.sol\":698:708  msg.sender */\n      caller\n        /* \"contracts/Fundraising.sol\":688:709  donations[msg.sender] */\n      0xffffffffffffffffffffffffffffffffffffffff\n      and\n      0xffffffffffffffffffffffffffffffffffffffff\n      and\n      dup2\n      mstore\n      0x20\n      add\n      swap1\n      dup2\n      mstore\n      0x20\n      add\n      0x00\n      keccak256\n      0x00\n        /* \"contracts/Fundraising.sol\":688:722  donations[msg.sender] += msg.value */\n      dup3\n      dup3\n      sload\n      tag_17\n      swap2\n      swap1\n      tag_18\n      jump\t// in\n    tag_17:\n      swap3\n      pop\n      pop\n      dup2\n      swap1\n      sstore\n      pop\n        /* \"contracts/Fundraising.sol\":745:754  msg.value */\n      callvalue\n        /* \"contracts/Fundraising.sol\":729:741  raisedAmount */\n      0x03\n      0x00\n        /* \"contracts/Fundraising.sol\":729:754  raisedAmount += msg.value */\n      dup3\n      dup3\n      sload\n      tag_19\n      swap2\n      swap1\n      tag_18\n      jump\t// in\n    tag_19:\n      swap3\n      pop\n      pop\n      dup2\n      swap1\n      sstore\n      stop\n        /* \"contracts/Fundraising.sol\":61:1937  contract Fundraising {... */\n    tag_2:\n      0x00\n      dup1\n      revert\n        /* \"contracts/Fundraising.sol\":1514:1832  function cancleFund() external payable {... */\n    tag_3:\n      tag_20\n      tag_21\n      jump\t// in\n    tag_20:\n      stop\n        /* \"contracts/Fundraising.sol\":1838:1934  function getDonation() external view returns (uint256) {... */\n    tag_4:\n      callvalue\n      dup1\n      iszero\n      tag_22\n      jumpi\n      0x00\n      dup1\n      revert\n    tag_22:\n      pop\n      tag_23\n      tag_24\n      jump\t// in\n    tag_23:\n      mload(0x40)\n      tag_25\n      swap2\n      swap1\n      tag_26\n      jump\t// in\n    tag_25:\n      mload(0x40)\n      dup1\n      swap2\n      sub\n      swap1\n      return\n        /* \"contracts/Fundraising.sol\":1107:1508  function refund() external payable {... */\n    tag_5:\n      tag_27\n      tag_28\n      jump\t// in\n    tag_27:\n      stop\n        /* \"contracts/Fundraising.sol\":218:243  uint256 public finishTime */\n    tag_6:\n      callvalue\n      dup1\n      iszero\n      tag_29\n      jumpi\n      0x00\n      dup1\n      revert\n    tag_29:\n      pop\n      tag_30\n      tag_31\n      jump\t// in\n    tag_30:\n      mload(0x40)\n      tag_32\n      swap2\n      swap1\n      tag_26\n      jump\t// in\n    tag_32:\n      mload(0x40)\n      dup1\n      swap2\n      sub\n      swap1\n      return\n        /* \"contracts/Fundraising.sol\":119:139  address public owner */\n    tag_7:\n      callvalue\n      dup1\n      iszero\n      tag_33\n      jumpi\n      0x00\n      dup1\n      revert\n    tag_33:\n      pop\n      tag_34\n      tag_35\n      jump\t// in\n    tag_34:\n      mload(0x40)\n      tag_36\n      swap2\n      swap1\n      tag_37\n      jump\t// in\n    tag_36:\n      mload(0x40)\n      dup1\n      swap2\n      sub\n      swap1\n      return\n        /* \"contracts/Fundraising.sol\":87:114  uint256 public targetAmount */\n    tag_8:\n      callvalue\n      dup1\n      iszero\n      tag_38\n      jumpi\n      0x00\n      dup1\n      revert\n    tag_38:\n      pop\n      tag_39\n      tag_40\n      jump\t// in\n    tag_39:\n      mload(0x40)\n      tag_41\n      swap2\n      swap1\n      tag_26\n      jump\t// in\n    tag_41:\n      mload(0x40)\n      dup1\n      swap2\n      sub\n      swap1\n      return\n        /* \"contracts/Fundraising.sol\":144:188  mapping(address => uint256) public donations */\n    tag_9:\n      callvalue\n      dup1\n      iszero\n      tag_42\n      jumpi\n      0x00\n      dup1\n      revert\n    tag_42:\n      pop\n      tag_43\n      0x04\n      dup1\n      calldatasize\n      sub\n      dup2\n      add\n      swap1\n      tag_44\n      swap2\n      swap1\n      tag_45\n      jump\t// in\n    tag_44:\n      tag_46\n      jump\t// in\n    tag_43:\n      mload(0x40)\n      tag_47\n      swap2\n      swap1\n      tag_26\n      jump\t// in\n    tag_47:\n      mload(0x40)\n      dup1\n      swap2\n      sub\n      swap1\n      return\n        /* \"contracts/Fundraising.sol\":766:1101  function withdrawDonations() external payable {... */\n    tag_10:\n      tag_48\n      tag_49\n      jump\t// in\n    tag_48:\n      stop\n        /* \"contracts/Fundraising.sol\":1514:1832  function cancleFund() external payable {... */\n    tag_21:\n        /* \"contracts/Fundraising.sol\":1586:1596  finishTime */\n      sload(0x04)\n        /* \"contracts/Fundraising.sol\":1568:1583  block.timestamp */\n      timestamp\n        /* \"contracts/Fundraising.sol\":1568:1596  block.timestamp < finishTime */\n      lt\n        /* \"contracts/Fundraising.sol\":1560:1621  require(block.timestamp < finishTime, \"This funding is over\") */\n      tag_51\n      jumpi\n      mload(0x40)\n      0x08c379a000000000000000000000000000000000000000000000000000000000\n      dup2\n      mstore\n      0x04\n      add\n      tag_52\n      swap1\n      tag_16\n      jump\t// in\n    tag_52:\n      mload(0x40)\n      dup1\n      swap2\n      sub\n      swap1\n      revert\n    tag_51:\n        /* \"contracts/Fundraising.sol\":1660:1661  0 */\n      0x00\n        /* \"contracts/Fundraising.sol\":1636:1645  donations */\n      0x02\n        /* \"contracts/Fundraising.sol\":1636:1657  donations[msg.sender] */\n      0x00\n        /* \"contracts/Fundraising.sol\":1646:1656  msg.sender */\n      caller\n        /* \"contracts/Fundraising.sol\":1636:1657  donations[msg.sender] */\n      0xffffffffffffffffffffffffffffffffffffffff\n      and\n      0xffffffffffffffffffffffffffffffffffffffff\n      and\n      dup2\n      mstore\n      0x20\n      add\n      swap1\n      dup2\n      mstore\n      0x20\n      add\n      0x00\n      keccak256\n      sload\n        /* \"contracts/Fundraising.sol\":1636:1661  donations[msg.sender] > 0 */\n      gt\n        /* \"contracts/Fundraising.sol\":1628:1700  require(donations[msg.sender] > 0, \"You did not donate to this funding\") */\n      tag_53\n      jumpi\n      mload(0x40)\n      0x08c379a000000000000000000000000000000000000000000000000000000000\n      dup2\n      mstore\n      0x04\n      add\n      tag_54\n      swap1\n      tag_55\n      jump\t// in\n    tag_54:\n      mload(0x40)\n      dup1\n      swap2\n      sub\n      swap1\n      revert\n    tag_53:\n        /* \"contracts/Fundraising.sol\":1709:1725  uint256 toRefund */\n      0x00\n        /* \"contracts/Fundraising.sol\":1728:1737  donations */\n      0x02\n        /* \"contracts/Fundraising.sol\":1728:1749  donations[msg.sender] */\n      0x00\n        /* \"contracts/Fundraising.sol\":1738:1748  msg.sender */\n      caller\n        /* \"contracts/Fundraising.sol\":1728:1749  donations[msg.sender] */\n      0xffffffffffffffffffffffffffffffffffffffff\n      and\n      0xffffffffffffffffffffffffffffffffffffffff\n      and\n      dup2\n      mstore\n      0x20\n      add\n      swap1\n      dup2\n      mstore\n      0x20\n      add\n      0x00\n      keccak256\n      sload\n        /* \"contracts/Fundraising.sol\":1709:1749  uint256 toRefund = donations[msg.sender] */\n      swap1\n      pop\n        /* \"contracts/Fundraising.sol\":1780:1781  0 */\n      0x00\n        /* \"contracts/Fundraising.sol\":1756:1765  donations */\n      0x02\n        /* \"contracts/Fundraising.sol\":1756:1777  donations[msg.sender] */\n      0x00\n        /* \"contracts/Fundraising.sol\":1766:1776  msg.sender */\n      caller\n        /* \"contracts/Fundraising.sol\":1756:1777  donations[msg.sender] */\n      0xffffffffffffffffffffffffffffffffffffffff\n      and\n      0xffffffffffffffffffffffffffffffffffffffff\n      and\n      dup2\n      mstore\n      0x20\n      add\n      swap1\n      dup2\n      mstore\n      0x20\n      add\n      0x00\n      keccak256\n        /* \"contracts/Fundraising.sol\":1756:1781  donations[msg.sender] = 0 */\n      dup2\n      swap1\n      sstore\n      pop\n        /* \"contracts/Fundraising.sol\":1796:1806  msg.sender */\n      caller\n        /* \"contracts/Fundraising.sol\":1788:1816  payable(msg.sender).transfer */\n      0xffffffffffffffffffffffffffffffffffffffff\n      and\n        /* \"contracts/Fundraising.sol\":1788:1826  payable(msg.sender).transfer(toRefund) */\n      0x08fc\n        /* \"contracts/Fundraising.sol\":1817:1825  toRefund */\n      dup3\n        /* \"contracts/Fundraising.sol\":1788:1826  payable(msg.sender).transfer(toRefund) */\n      swap1\n      dup2\n      iszero\n      mul\n      swap1\n      mload(0x40)\n      0x00\n      mload(0x40)\n      dup1\n      dup4\n      sub\n      dup2\n      dup6\n      dup9\n      dup9\n      call\n      swap4\n      pop\n      pop\n      pop\n      pop\n      iszero\n      dup1\n      iszero\n      tag_57\n      jumpi\n      returndatasize\n      0x00\n      dup1\n      returndatacopy\n      revert(0x00, returndatasize)\n    tag_57:\n      pop\n        /* \"contracts/Fundraising.sol\":1553:1832  {... */\n      pop\n        /* \"contracts/Fundraising.sol\":1514:1832  function cancleFund() external payable {... */\n      jump\t// out\n        /* \"contracts/Fundraising.sol\":1838:1934  function getDonation() external view returns (uint256) {... */\n    tag_24:\n        /* \"contracts/Fundraising.sol\":1884:1891  uint256 */\n      0x00\n        /* \"contracts/Fundraising.sol\":1907:1916  donations */\n      0x02\n        /* \"contracts/Fundraising.sol\":1907:1928  donations[msg.sender] */\n      0x00\n        /* \"contracts/Fundraising.sol\":1917:1927  msg.sender */\n      caller\n        /* \"contracts/Fundraising.sol\":1907:1928  donations[msg.sender] */\n      0xffffffffffffffffffffffffffffffffffffffff\n      and\n      0xffffffffffffffffffffffffffffffffffffffff\n      and\n      dup2\n      mstore\n      0x20\n      add\n      swap1\n      dup2\n      mstore\n      0x20\n      add\n      0x00\n      keccak256\n      sload\n        /* \"contracts/Fundraising.sol\":1900:1928  return donations[msg.sender] */\n      swap1\n      pop\n        /* \"contracts/Fundraising.sol\":1838:1934  function getDonation() external view returns (uint256) {... */\n      swap1\n      jump\t// out\n        /* \"contracts/Fundraising.sol\":1107:1508  function refund() external payable {... */\n    tag_28:\n        /* \"contracts/Fundraising.sol\":1175:1185  finishTime */\n      sload(0x04)\n        /* \"contracts/Fundraising.sol\":1157:1172  block.timestamp */\n      timestamp\n        /* \"contracts/Fundraising.sol\":1157:1185  block.timestamp > finishTime */\n      gt\n        /* \"contracts/Fundraising.sol\":1149:1218  require(block.timestamp > finishTime, \"This funding is not over yet\") */\n      tag_60\n      jumpi\n      mload(0x40)\n      0x08c379a000000000000000000000000000000000000000000000000000000000\n      dup2\n      mstore\n      0x04\n      add\n      tag_61\n      swap1\n      tag_62\n      jump\t// in\n    tag_61:\n      mload(0x40)\n      dup1\n      swap2\n      sub\n      swap1\n      revert\n    tag_60:\n        /* \"contracts/Fundraising.sol\":1248:1260  targetAmount */\n      sload(0x00)\n        /* \"contracts/Fundraising.sol\":1233:1245  raisedAmount */\n      sload(0x03)\n        /* \"contracts/Fundraising.sol\":1233:1260  raisedAmount < targetAmount */\n      lt\n        /* \"contracts/Fundraising.sol\":1225:1297  require(raisedAmount < targetAmount, \"The funding did reached the goal\") */\n      tag_63\n      jumpi\n      mload(0x40)\n      0x08c379a000000000000000000000000000000000000000000000000000000000\n      dup2\n      mstore\n      0x04\n      add\n      tag_64\n      swap1\n      tag_65\n      jump\t// in\n    tag_64:\n      mload(0x40)\n      dup1\n      swap2\n      sub\n      swap1\n      revert\n    tag_63:\n        /* \"contracts/Fundraising.sol\":1336:1337  0 */\n      0x00\n        /* \"contracts/Fundraising.sol\":1312:1321  donations */\n      0x02\n        /* \"contracts/Fundraising.sol\":1312:1333  donations[msg.sender] */\n      0x00\n        /* \"contracts/Fundraising.sol\":1322:1332  msg.sender */\n      caller\n        /* \"contracts/Fundraising.sol\":1312:1333  donations[msg.sender] */\n      0xffffffffffffffffffffffffffffffffffffffff\n      and\n      0xffffffffffffffffffffffffffffffffffffffff\n      and\n      dup2\n      mstore\n      0x20\n      add\n      swap1\n      dup2\n      mstore\n      0x20\n      add\n      0x00\n      keccak256\n      sload\n        /* \"contracts/Fundraising.sol\":1312:1337  donations[msg.sender] > 0 */\n      gt\n        /* \"contracts/Fundraising.sol\":1304:1376  require(donations[msg.sender] > 0, \"You did not donate to this funding\") */\n      tag_66\n      jumpi\n      mload(0x40)\n      0x08c379a000000000000000000000000000000000000000000000000000000000\n      dup2\n      mstore\n      0x04\n      add\n      tag_67\n      swap1\n      tag_55\n      jump\t// in\n    tag_67:\n      mload(0x40)\n      dup1\n      swap2\n      sub\n      swap1\n      revert\n    tag_66:\n        /* \"contracts/Fundraising.sol\":1385:1401  uint256 toRefund */\n      0x00\n        /* \"contracts/Fundraising.sol\":1404:1413  donations */\n      0x02\n        /* \"contracts/Fundraising.sol\":1404:1425  donations[msg.sender] */\n      0x00\n        /* \"contracts/Fundraising.sol\":1414:1424  msg.sender */\n      caller\n        /* \"contracts/Fundraising.sol\":1404:1425  donations[msg.sender] */\n      0xffffffffffffffffffffffffffffffffffffffff\n      and\n      0xffffffffffffffffffffffffffffffffffffffff\n      and\n      dup2\n      mstore\n      0x20\n      add\n      swap1\n      dup2\n      mstore\n      0x20\n      add\n      0x00\n      keccak256\n      sload\n        /* \"contracts/Fundraising.sol\":1385:1425  uint256 toRefund = donations[msg.sender] */\n      swap1\n      pop\n        /* \"contracts/Fundraising.sol\":1456:1457  0 */\n      0x00\n        /* \"contracts/Fundraising.sol\":1432:1441  donations */\n      0x02\n        /* \"contracts/Fundraising.sol\":1432:1453  donations[msg.sender] */\n      0x00\n        /* \"contracts/Fundraising.sol\":1442:1452  msg.sender */\n      caller\n        /* \"contracts/Fundraising.sol\":1432:1453  donations[msg.sender] */\n      0xffffffffffffffffffffffffffffffffffffffff\n      and\n      0xffffffffffffffffffffffffffffffffffffffff\n      and\n      dup2\n      mstore\n      0x20\n      add\n      swap1\n      dup2\n      mstore\n      0x20\n      add\n      0x00\n      keccak256\n        /* \"contracts/Fundraising.sol\":1432:1457  donations[msg.sender] = 0 */\n      dup2\n      swap1\n      sstore\n      pop\n        /* \"contracts/Fundraising.sol\":1472:1482  msg.sender */\n      caller\n        /* \"contracts/Fundraising.sol\":1464:1492  payable(msg.sender).transfer */\n      0xffffffffffffffffffffffffffffffffffffffff\n      and\n        /* \"contracts/Fundraising.sol\":1464:1502  payable(msg.sender).transfer(toRefund) */\n      0x08fc\n        /* \"contracts/Fundraising.sol\":1493:1501  toRefund */\n      dup3\n        /* \"contracts/Fundraising.sol\":1464:1502  payable(msg.sender).transfer(toRefund) */\n      swap1\n      dup2\n      iszero\n      mul\n      swap1\n      mload(0x40)\n      0x00\n      mload(0x40)\n      dup1\n      dup4\n      sub\n      dup2\n      dup6\n      dup9\n      dup9\n      call\n      swap4\n      pop\n      pop\n      pop\n      pop\n      iszero\n      dup1\n      iszero\n      tag_69\n      jumpi\n      returndatasize\n      0x00\n      dup1\n      returndatacopy\n      revert(0x00, returndatasize)\n    tag_69:\n      pop\n        /* \"contracts/Fundraising.sol\":1142:1508  {... */\n      pop\n        /* \"contracts/Fundraising.sol\":1107:1508  function refund() external payable {... */\n      jump\t// out\n        /* \"contracts/Fundraising.sol\":218:243  uint256 public finishTime */\n    tag_31:\n      sload(0x04)\n      dup2\n      jump\t// out\n        /* \"contracts/Fundraising.sol\":119:139  address public owner */\n    tag_35:\n      0x01\n      0x00\n      swap1\n      sload\n      swap1\n      0x0100\n      exp\n      swap1\n      div\n      0xffffffffffffffffffffffffffffffffffffffff\n      and\n      dup2\n      jump\t// out\n        /* \"contracts/Fundraising.sol\":87:114  uint256 public targetAmount */\n    tag_40:\n      sload(0x00)\n      dup2\n      jump\t// out\n        /* \"contracts/Fundraising.sol\":144:188  mapping(address => uint256) public donations */\n    tag_46:\n      mstore(0x20, 0x02)\n      dup1\n      0x00\n      mstore\n      keccak256(0x00, 0x40)\n      0x00\n      swap2\n      pop\n      swap1\n      pop\n      sload\n      dup2\n      jump\t// out\n        /* \"contracts/Fundraising.sol\":766:1101  function withdrawDonations() external payable {... */\n    tag_49:\n        /* \"contracts/Fundraising.sol\":841:846  owner */\n      0x01\n      0x00\n      swap1\n      sload\n      swap1\n      0x0100\n      exp\n      swap1\n      div\n      0xffffffffffffffffffffffffffffffffffffffff\n      and\n        /* \"contracts/Fundraising.sol\":827:846  msg.sender == owner */\n      0xffffffffffffffffffffffffffffffffffffffff\n      and\n        /* \"contracts/Fundraising.sol\":827:837  msg.sender */\n      caller\n        /* \"contracts/Fundraising.sol\":827:846  msg.sender == owner */\n      0xffffffffffffffffffffffffffffffffffffffff\n      and\n      eq\n        /* \"contracts/Fundraising.sol\":819:891  require(msg.sender == owner, \"Funds will only be released to the owner\") */\n      tag_71\n      jumpi\n      mload(0x40)\n      0x08c379a000000000000000000000000000000000000000000000000000000000\n      dup2\n      mstore\n      0x04\n      add\n      tag_72\n      swap1\n      tag_73\n      jump\t// in\n    tag_72:\n      mload(0x40)\n      dup1\n      swap2\n      sub\n      swap1\n      revert\n    tag_71:\n        /* \"contracts/Fundraising.sol\":922:934  targetAmount */\n      sload(0x00)\n        /* \"contracts/Fundraising.sol\":906:918  raisedAmount */\n      sload(0x03)\n        /* \"contracts/Fundraising.sol\":906:934  raisedAmount >= targetAmount */\n      lt\n      iszero\n        /* \"contracts/Fundraising.sol\":898:973  require(raisedAmount >= targetAmount, \"The funding did not reach the goal\") */\n      tag_74\n      jumpi\n      mload(0x40)\n      0x08c379a000000000000000000000000000000000000000000000000000000000\n      dup2\n      mstore\n      0x04\n      add\n      tag_75\n      swap1\n      tag_76\n      jump\t// in\n    tag_75:\n      mload(0x40)\n      dup1\n      swap2\n      sub\n      swap1\n      revert\n    tag_74:\n        /* \"contracts/Fundraising.sol\":1006:1016  finishTime */\n      sload(0x04)\n        /* \"contracts/Fundraising.sol\":988:1003  block.timestamp */\n      timestamp\n        /* \"contracts/Fundraising.sol\":988:1016  block.timestamp > finishTime */\n      gt\n        /* \"contracts/Fundraising.sol\":980:1049  require(block.timestamp > finishTime, \"This funding is not over yet\") */\n      tag_77\n      jumpi\n      mload(0x40)\n      0x08c379a000000000000000000000000000000000000000000000000000000000\n      dup2\n      mstore\n      0x04\n      add\n      tag_78\n      swap1\n      tag_62\n      jump\t// in\n    tag_78:\n      mload(0x40)\n      dup1\n      swap2\n      sub\n      swap1\n      revert\n    tag_77:\n        /* \"contracts/Fundraising.sol\":1066:1071  owner */\n      0x01\n      0x00\n      swap1\n      sload\n      swap1\n      0x0100\n      exp\n      swap1\n      div\n      0xffffffffffffffffffffffffffffffffffffffff\n      and\n        /* \"contracts/Fundraising.sol\":1058:1081  payable(owner).transfer */\n      0xffffffffffffffffffffffffffffffffffffffff\n      and\n        /* \"contracts/Fundraising.sol\":1058:1095  payable(owner).transfer(raisedAmount) */\n      0x08fc\n        /* \"contracts/Fundraising.sol\":1082:1094  raisedAmount */\n      sload(0x03)\n        /* \"contracts/Fundraising.sol\":1058:1095  payable(owner).transfer(raisedAmount) */\n      swap1\n      dup2\n      iszero\n      mul\n      swap1\n      mload(0x40)\n      0x00\n      mload(0x40)\n      dup1\n      dup4\n      sub\n      dup2\n      dup6\n      dup9\n      dup9\n      call\n      swap4\n      pop\n      pop\n      pop\n      pop\n      iszero\n      dup1\n      iszero\n      tag_80\n      jumpi\n      returndatasize\n      0x00\n      dup1\n      returndatacopy\n      revert(0x00, returndatasize)\n    tag_80:\n      pop\n        /* \"contracts/Fundraising.sol\":766:1101  function withdrawDonations() external payable {... */\n      jump\t// out\n        /* \"#utility.yul\":7:176   */\n    tag_81:\n        /* \"#utility.yul\":91:102   */\n      0x00\n        /* \"#utility.yul\":125:131   */\n      dup3\n        /* \"#utility.yul\":120:123   */\n      dup3\n        /* \"#utility.yul\":113:132   */\n      mstore\n        /* \"#utility.yul\":165:169   */\n      0x20\n        /* \"#utility.yul\":160:163   */\n      dup3\n        /* \"#utility.yul\":156:170   */\n      add\n        /* \"#utility.yul\":141:170   */\n      swap1\n      pop\n        /* \"#utility.yul\":7:176   */\n      swap3\n      swap2\n      pop\n      pop\n      jump\t// out\n        /* \"#utility.yul\":182:352   */\n    tag_82:\n        /* \"#utility.yul\":322:344   */\n      0x546869732066756e64696e67206973206f766572000000000000000000000000\n        /* \"#utility.yul\":318:319   */\n      0x00\n        /* \"#utility.yul\":310:316   */\n      dup3\n        /* \"#utility.yul\":306:320   */\n      add\n        /* \"#utility.yul\":299:345   */\n      mstore\n        /* \"#utility.yul\":182:352   */\n      pop\n      jump\t// out\n        /* \"#utility.yul\":358:724   */\n    tag_83:\n        /* \"#utility.yul\":500:503   */\n      0x00\n        /* \"#utility.yul\":521:588   */\n      tag_109\n        /* \"#utility.yul\":585:587   */\n      0x14\n        /* \"#utility.yul\":580:583   */\n      dup4\n        /* \"#utility.yul\":521:588   */\n      tag_81\n      jump\t// in\n    tag_109:\n        /* \"#utility.yul\":514:588   */\n      swap2\n      pop\n        /* \"#utility.yul\":597:690   */\n      tag_110\n        /* \"#utility.yul\":686:689   */\n      dup3\n        /* \"#utility.yul\":597:690   */\n      tag_82\n      jump\t// in\n    tag_110:\n        /* \"#utility.yul\":715:717   */\n      0x20\n        /* \"#utility.yul\":710:713   */\n      dup3\n        /* \"#utility.yul\":706:718   */\n      add\n        /* \"#utility.yul\":699:718   */\n      swap1\n      pop\n        /* \"#utility.yul\":358:724   */\n      swap2\n      swap1\n      pop\n      jump\t// out\n        /* \"#utility.yul\":730:1149   */\n    tag_16:\n        /* \"#utility.yul\":896:900   */\n      0x00\n        /* \"#utility.yul\":934:936   */\n      0x20\n        /* \"#utility.yul\":923:932   */\n      dup3\n        /* \"#utility.yul\":919:937   */\n      add\n        /* \"#utility.yul\":911:937   */\n      swap1\n      pop\n        /* \"#utility.yul\":983:992   */\n      dup2\n        /* \"#utility.yul\":977:981   */\n      dup2\n        /* \"#utility.yul\":973:993   */\n      sub\n        /* \"#utility.yul\":969:970   */\n      0x00\n        /* \"#utility.yul\":958:967   */\n      dup4\n        /* \"#utility.yul\":954:971   */\n      add\n        /* \"#utility.yul\":947:994   */\n      mstore\n        /* \"#utility.yul\":1011:1142   */\n      tag_112\n        /* \"#utility.yul\":1137:1141   */\n      dup2\n        /* \"#utility.yul\":1011:1142   */\n      tag_83\n      jump\t// in\n    tag_112:\n        /* \"#utility.yul\":1003:1142   */\n      swap1\n      pop\n        /* \"#utility.yul\":730:1149   */\n      swap2\n      swap1\n      pop\n      jump\t// out\n        /* \"#utility.yul\":1155:1232   */\n    tag_84:\n        /* \"#utility.yul\":1192:1199   */\n      0x00\n        /* \"#utility.yul\":1221:1226   */\n      dup2\n        /* \"#utility.yul\":1210:1226   */\n      swap1\n      pop\n        /* \"#utility.yul\":1155:1232   */\n      swap2\n      swap1\n      pop\n      jump\t// out\n        /* \"#utility.yul\":1238:1418   */\n    tag_85:\n        /* \"#utility.yul\":1286:1363   */\n      0x4e487b7100000000000000000000000000000000000000000000000000000000\n        /* \"#utility.yul\":1283:1284   */\n      0x00\n        /* \"#utility.yul\":1276:1364   */\n      mstore\n        /* \"#utility.yul\":1383:1387   */\n      0x11\n        /* \"#utility.yul\":1380:1381   */\n      0x04\n        /* \"#utility.yul\":1373:1388   */\n      mstore\n        /* \"#utility.yul\":1407:1411   */\n      0x24\n        /* \"#utility.yul\":1404:1405   */\n      0x00\n        /* \"#utility.yul\":1397:1412   */\n      revert\n        /* \"#utility.yul\":1424:1615   */\n    tag_18:\n        /* \"#utility.yul\":1464:1467   */\n      0x00\n        /* \"#utility.yul\":1483:1503   */\n      tag_116\n        /* \"#utility.yul\":1501:1502   */\n      dup3\n        /* \"#utility.yul\":1483:1503   */\n      tag_84\n      jump\t// in\n    tag_116:\n        /* \"#utility.yul\":1478:1503   */\n      swap2\n      pop\n        /* \"#utility.yul\":1517:1537   */\n      tag_117\n        /* \"#utility.yul\":1535:1536   */\n      dup4\n        /* \"#utility.yul\":1517:1537   */\n      tag_84\n      jump\t// in\n    tag_117:\n        /* \"#utility.yul\":1512:1537   */\n      swap3\n      pop\n        /* \"#utility.yul\":1560:1561   */\n      dup3\n        /* \"#utility.yul\":1557:1558   */\n      dup3\n        /* \"#utility.yul\":1553:1562   */\n      add\n        /* \"#utility.yul\":1546:1562   */\n      swap1\n      pop\n        /* \"#utility.yul\":1581:1584   */\n      dup1\n        /* \"#utility.yul\":1578:1579   */\n      dup3\n        /* \"#utility.yul\":1575:1585   */\n      gt\n        /* \"#utility.yul\":1572:1608   */\n      iszero\n      tag_118\n      jumpi\n        /* \"#utility.yul\":1588:1606   */\n      tag_119\n      tag_85\n      jump\t// in\n    tag_119:\n        /* \"#utility.yul\":1572:1608   */\n    tag_118:\n        /* \"#utility.yul\":1424:1615   */\n      swap3\n      swap2\n      pop\n      pop\n      jump\t// out\n        /* \"#utility.yul\":1621:1739   */\n    tag_86:\n        /* \"#utility.yul\":1708:1732   */\n      tag_121\n        /* \"#utility.yul\":1726:1731   */\n      dup2\n        /* \"#utility.yul\":1708:1732   */\n      tag_84\n      jump\t// in\n    tag_121:\n        /* \"#utility.yul\":1703:1706   */\n      dup3\n        /* \"#utility.yul\":1696:1733   */\n      mstore\n        /* \"#utility.yul\":1621:1739   */\n      pop\n      pop\n      jump\t// out\n        /* \"#utility.yul\":1745:1967   */\n    tag_26:\n        /* \"#utility.yul\":1838:1842   */\n      0x00\n        /* \"#utility.yul\":1876:1878   */\n      0x20\n        /* \"#utility.yul\":1865:1874   */\n      dup3\n        /* \"#utility.yul\":1861:1879   */\n      add\n        /* \"#utility.yul\":1853:1879   */\n      swap1\n      pop\n        /* \"#utility.yul\":1889:1960   */\n      tag_123\n        /* \"#utility.yul\":1957:1958   */\n      0x00\n        /* \"#utility.yul\":1946:1955   */\n      dup4\n        /* \"#utility.yul\":1942:1959   */\n      add\n        /* \"#utility.yul\":1933:1939   */\n      dup5\n        /* \"#utility.yul\":1889:1960   */\n      tag_86\n      jump\t// in\n    tag_123:\n        /* \"#utility.yul\":1745:1967   */\n      swap3\n      swap2\n      pop\n      pop\n      jump\t// out\n        /* \"#utility.yul\":1973:2099   */\n    tag_87:\n        /* \"#utility.yul\":2010:2017   */\n      0x00\n        /* \"#utility.yul\":2050:2092   */\n      0xffffffffffffffffffffffffffffffffffffffff\n        /* \"#utility.yul\":2043:2048   */\n      dup3\n        /* \"#utility.yul\":2039:2093   */\n      and\n        /* \"#utility.yul\":2028:2093   */\n      swap1\n      pop\n        /* \"#utility.yul\":1973:2099   */\n      swap2\n      swap1\n      pop\n      jump\t// out\n        /* \"#utility.yul\":2105:2201   */\n    tag_88:\n        /* \"#utility.yul\":2142:2149   */\n      0x00\n        /* \"#utility.yul\":2171:2195   */\n      tag_126\n        /* \"#utility.yul\":2189:2194   */\n      dup3\n        /* \"#utility.yul\":2171:2195   */\n      tag_87\n      jump\t// in\n    tag_126:\n        /* \"#utility.yul\":2160:2195   */\n      swap1\n      pop\n        /* \"#utility.yul\":2105:2201   */\n      swap2\n      swap1\n      pop\n      jump\t// out\n        /* \"#utility.yul\":2207:2325   */\n    tag_89:\n        /* \"#utility.yul\":2294:2318   */\n      tag_128\n        /* \"#utility.yul\":2312:2317   */\n      dup2\n        /* \"#utility.yul\":2294:2318   */\n      tag_88\n      jump\t// in\n    tag_128:\n        /* \"#utility.yul\":2289:2292   */\n      dup3\n        /* \"#utility.yul\":2282:2319   */\n      mstore\n        /* \"#utility.yul\":2207:2325   */\n      pop\n      pop\n      jump\t// out\n        /* \"#utility.yul\":2331:2553   */\n    tag_37:\n        /* \"#utility.yul\":2424:2428   */\n      0x00\n        /* \"#utility.yul\":2462:2464   */\n      0x20\n        /* \"#utility.yul\":2451:2460   */\n      dup3\n        /* \"#utility.yul\":2447:2465   */\n      add\n        /* \"#utility.yul\":2439:2465   */\n      swap1\n      pop\n        /* \"#utility.yul\":2475:2546   */\n      tag_130\n        /* \"#utility.yul\":2543:2544   */\n      0x00\n        /* \"#utility.yul\":2532:2541   */\n      dup4\n        /* \"#utility.yul\":2528:2545   */\n      add\n        /* \"#utility.yul\":2519:2525   */\n      dup5\n        /* \"#utility.yul\":2475:2546   */\n      tag_89\n      jump\t// in\n    tag_130:\n        /* \"#utility.yul\":2331:2553   */\n      swap3\n      swap2\n      pop\n      pop\n      jump\t// out\n        /* \"#utility.yul\":2640:2757   */\n    tag_91:\n        /* \"#utility.yul\":2749:2750   */\n      0x00\n        /* \"#utility.yul\":2746:2747   */\n      dup1\n        /* \"#utility.yul\":2739:2751   */\n      revert\n        /* \"#utility.yul\":2886:3008   */\n    tag_93:\n        /* \"#utility.yul\":2959:2983   */\n      tag_135\n        /* \"#utility.yul\":2977:2982   */\n      dup2\n        /* \"#utility.yul\":2959:2983   */\n      tag_88\n      jump\t// in\n    tag_135:\n        /* \"#utility.yul\":2952:2957   */\n      dup2\n        /* \"#utility.yul\":2949:2984   */\n      eq\n        /* \"#utility.yul\":2939:3002   */\n      tag_136\n      jumpi\n        /* \"#utility.yul\":2998:2999   */\n      0x00\n        /* \"#utility.yul\":2995:2996   */\n      dup1\n        /* \"#utility.yul\":2988:3000   */\n      revert\n        /* \"#utility.yul\":2939:3002   */\n    tag_136:\n        /* \"#utility.yul\":2886:3008   */\n      pop\n      jump\t// out\n        /* \"#utility.yul\":3014:3153   */\n    tag_94:\n        /* \"#utility.yul\":3060:3065   */\n      0x00\n        /* \"#utility.yul\":3098:3104   */\n      dup2\n        /* \"#utility.yul\":3085:3105   */\n      calldataload\n        /* \"#utility.yul\":3076:3105   */\n      swap1\n      pop\n        /* \"#utility.yul\":3114:3147   */\n      tag_138\n        /* \"#utility.yul\":3141:3146   */\n      dup2\n        /* \"#utility.yul\":3114:3147   */\n      tag_93\n      jump\t// in\n    tag_138:\n        /* \"#utility.yul\":3014:3153   */\n      swap3\n      swap2\n      pop\n      pop\n      jump\t// out\n        /* \"#utility.yul\":3159:3488   */\n    tag_45:\n        /* \"#utility.yul\":3218:3224   */\n      0x00\n        /* \"#utility.yul\":3267:3269   */\n      0x20\n        /* \"#utility.yul\":3255:3264   */\n      dup3\n        /* \"#utility.yul\":3246:3253   */\n      dup5\n        /* \"#utility.yul\":3242:3265   */\n      sub\n        /* \"#utility.yul\":3238:3270   */\n      slt\n        /* \"#utility.yul\":3235:3354   */\n      iszero\n      tag_140\n      jumpi\n        /* \"#utility.yul\":3273:3352   */\n      tag_141\n      tag_91\n      jump\t// in\n    tag_141:\n        /* \"#utility.yul\":3235:3354   */\n    tag_140:\n        /* \"#utility.yul\":3393:3394   */\n      0x00\n        /* \"#utility.yul\":3418:3471   */\n      tag_142\n        /* \"#utility.yul\":3463:3470   */\n      dup5\n        /* \"#utility.yul\":3454:3460   */\n      dup3\n        /* \"#utility.yul\":3443:3452   */\n      dup6\n        /* \"#utility.yul\":3439:3461   */\n      add\n        /* \"#utility.yul\":3418:3471   */\n      tag_94\n      jump\t// in\n    tag_142:\n        /* \"#utility.yul\":3408:3471   */\n      swap2\n      pop\n        /* \"#utility.yul\":3364:3481   */\n      pop\n        /* \"#utility.yul\":3159:3488   */\n      swap3\n      swap2\n      pop\n      pop\n      jump\t// out\n        /* \"#utility.yul\":3494:3715   */\n    tag_95:\n        /* \"#utility.yul\":3634:3668   */\n      0x596f7520646964206e6f7420646f6e61746520746f20746869732066756e6469\n        /* \"#utility.yul\":3630:3631   */\n      0x00\n        /* \"#utility.yul\":3622:3628   */\n      dup3\n        /* \"#utility.yul\":3618:3632   */\n      add\n        /* \"#utility.yul\":3611:3669   */\n      mstore\n        /* \"#utility.yul\":3703:3707   */\n      0x6e67000000000000000000000000000000000000000000000000000000000000\n        /* \"#utility.yul\":3698:3700   */\n      0x20\n        /* \"#utility.yul\":3690:3696   */\n      dup3\n        /* \"#utility.yul\":3686:3701   */\n      add\n        /* \"#utility.yul\":3679:3708   */\n      mstore\n        /* \"#utility.yul\":3494:3715   */\n      pop\n      jump\t// out\n        /* \"#utility.yul\":3721:4087   */\n    tag_96:\n        /* \"#utility.yul\":3863:3866   */\n      0x00\n        /* \"#utility.yul\":3884:3951   */\n      tag_145\n        /* \"#utility.yul\":3948:3950   */\n      0x22\n        /* \"#utility.yul\":3943:3946   */\n      dup4\n        /* \"#utility.yul\":3884:3951   */\n      tag_81\n      jump\t// in\n    tag_145:\n        /* \"#utility.yul\":3877:3951   */\n      swap2\n      pop\n        /* \"#utility.yul\":3960:4053   */\n      tag_146\n        /* \"#utility.yul\":4049:4052   */\n      dup3\n        /* \"#utility.yul\":3960:4053   */\n      tag_95\n      jump\t// in\n    tag_146:\n        /* \"#utility.yul\":4078:4080   */\n      0x40\n        /* \"#utility.yul\":4073:4076   */\n      dup3\n        /* \"#utility.yul\":4069:4081   */\n      add\n        /* \"#utility.yul\":4062:4081   */\n      swap1\n      pop\n        /* \"#utility.yul\":3721:4087   */\n      swap2\n      swap1\n      pop\n      jump\t// out\n        /* \"#utility.yul\":4093:4512   */\n    tag_55:\n        /* \"#utility.yul\":4259:4263   */\n      0x00\n        /* \"#utility.yul\":4297:4299   */\n      0x20\n        /* \"#utility.yul\":4286:4295   */\n      dup3\n        /* \"#utility.yul\":4282:4300   */\n      add\n        /* \"#utility.yul\":4274:4300   */\n      swap1\n      pop\n        /* \"#utility.yul\":4346:4355   */\n      dup2\n        /* \"#utility.yul\":4340:4344   */\n      dup2\n        /* \"#utility.yul\":4336:4356   */\n      sub\n        /* \"#utility.yul\":4332:4333   */\n      0x00\n        /* \"#utility.yul\":4321:4330   */\n      dup4\n        /* \"#utility.yul\":4317:4334   */\n      add\n        /* \"#utility.yul\":4310:4357   */\n      mstore\n        /* \"#utility.yul\":4374:4505   */\n      tag_148\n        /* \"#utility.yul\":4500:4504   */\n      dup2\n        /* \"#utility.yul\":4374:4505   */\n      tag_96\n      jump\t// in\n    tag_148:\n        /* \"#utility.yul\":4366:4505   */\n      swap1\n      pop\n        /* \"#utility.yul\":4093:4512   */\n      swap2\n      swap1\n      pop\n      jump\t// out\n        /* \"#utility.yul\":4518:4696   */\n    tag_97:\n        /* \"#utility.yul\":4658:4688   */\n      0x546869732066756e64696e67206973206e6f74206f7665722079657400000000\n        /* \"#utility.yul\":4654:4655   */\n      0x00\n        /* \"#utility.yul\":4646:4652   */\n      dup3\n        /* \"#utility.yul\":4642:4656   */\n      add\n        /* \"#utility.yul\":4635:4689   */\n      mstore\n        /* \"#utility.yul\":4518:4696   */\n      pop\n      jump\t// out\n        /* \"#utility.yul\":4702:5068   */\n    tag_98:\n        /* \"#utility.yul\":4844:4847   */\n      0x00\n        /* \"#utility.yul\":4865:4932   */\n      tag_151\n        /* \"#utility.yul\":4929:4931   */\n      0x1c\n        /* \"#utility.yul\":4924:4927   */\n      dup4\n        /* \"#utility.yul\":4865:4932   */\n      tag_81\n      jump\t// in\n    tag_151:\n        /* \"#utility.yul\":4858:4932   */\n      swap2\n      pop\n        /* \"#utility.yul\":4941:5034   */\n      tag_152\n        /* \"#utility.yul\":5030:5033   */\n      dup3\n        /* \"#utility.yul\":4941:5034   */\n      tag_97\n      jump\t// in\n    tag_152:\n        /* \"#utility.yul\":5059:5061   */\n      0x20\n        /* \"#utility.yul\":5054:5057   */\n      dup3\n        /* \"#utility.yul\":5050:5062   */\n      add\n        /* \"#utility.yul\":5043:5062   */\n      swap1\n      pop\n        /* \"#utility.yul\":4702:5068   */\n      swap2\n      swap1\n      pop\n      jump\t// out\n        /* \"#utility.yul\":5074:5493   */\n    tag_62:\n        /* \"#utility.yul\":5240:5244   */\n      0x00\n        /* \"#utility.yul\":5278:5280   */\n      0x20\n        /* \"#utility.yul\":5267:5276   */\n      dup3\n        /* \"#utility.yul\":5263:5281   */\n      add\n        /* \"#utility.yul\":5255:5281   */\n      swap1\n      pop\n        /* \"#utility.yul\":5327:5336   */\n      dup2\n        /* \"#utility.yul\":5321:5325   */\n      dup2\n        /* \"#utility.yul\":5317:5337   */\n      sub\n        /* \"#utility.yul\":5313:5314   */\n      0x00\n        /* \"#utility.yul\":5302:5311   */\n      dup4\n        /* \"#utility.yul\":5298:5315   */\n      add\n        /* \"#utility.yul\":5291:5338   */\n      mstore\n        /* \"#utility.yul\":5355:5486   */\n      tag_154\n        /* \"#utility.yul\":5481:5485   */\n      dup2\n        /* \"#utility.yul\":5355:5486   */\n      tag_98\n      jump\t// in\n    tag_154:\n        /* \"#utility.yul\":5347:5486   */\n      swap1\n      pop\n        /* \"#utility.yul\":5074:5493   */\n      swap2\n      swap1\n      pop\n      jump\t// out\n        /* \"#utility.yul\":5499:5681   */\n    tag_99:\n        /* \"#utility.yul\":5639:5673   */\n      0x5468652066756e64696e672064696420726561636865642074686520676f616c\n        /* \"#utility.yul\":5635:5636   */\n      0x00\n        /* \"#utility.yul\":5627:5633   */\n      dup3\n        /* \"#utility.yul\":5623:5637   */\n      add\n        /* \"#utility.yul\":5616:5674   */\n      mstore\n        /* \"#utility.yul\":5499:5681   */\n      pop\n      jump\t// out\n        /* \"#utility.yul\":5687:6053   */\n    tag_100:\n        /* \"#utility.yul\":5829:5832   */\n      0x00\n        /* \"#utility.yul\":5850:5917   */\n      tag_157\n        /* \"#utility.yul\":5914:5916   */\n      0x20\n        /* \"#utility.yul\":5909:5912   */\n      dup4\n        /* \"#utility.yul\":5850:5917   */\n      tag_81\n      jump\t// in\n    tag_157:\n        /* \"#utility.yul\":5843:5917   */\n      swap2\n      pop\n        /* \"#utility.yul\":5926:6019   */\n      tag_158\n        /* \"#utility.yul\":6015:6018   */\n      dup3\n        /* \"#utility.yul\":5926:6019   */\n      tag_99\n      jump\t// in\n    tag_158:\n        /* \"#utility.yul\":6044:6046   */\n      0x20\n        /* \"#utility.yul\":6039:6042   */\n      dup3\n        /* \"#utility.yul\":6035:6047   */\n      add\n        /* \"#utility.yul\":6028:6047   */\n      swap1\n      pop\n        /* \"#utility.yul\":5687:6053   */\n      swap2\n      swap1\n      pop\n      jump\t// out\n        /* \"#utility.yul\":6059:6478   */\n    tag_65:\n        /* \"#utility.yul\":6225:6229   */\n      0x00\n        /* \"#utility.yul\":6263:6265   */\n      0x20\n        /* \"#utility.yul\":6252:6261   */\n      dup3\n        /* \"#utility.yul\":6248:6266   */\n      add\n        /* \"#utility.yul\":6240:6266   */\n      swap1\n      pop\n        /* \"#utility.yul\":6312:6321   */\n      dup2\n        /* \"#utility.yul\":6306:6310   */\n      dup2\n        /* \"#utility.yul\":6302:6322   */\n      sub\n        /* \"#utility.yul\":6298:6299   */\n      0x00\n        /* \"#utility.yul\":6287:6296   */\n      dup4\n        /* \"#utility.yul\":6283:6300   */\n      add\n        /* \"#utility.yul\":6276:6323   */\n      mstore\n        /* \"#utility.yul\":6340:6471   */\n      tag_160\n        /* \"#utility.yul\":6466:6470   */\n      dup2\n        /* \"#utility.yul\":6340:6471   */\n      tag_100\n      jump\t// in\n    tag_160:\n        /* \"#utility.yul\":6332:6471   */\n      swap1\n      pop\n        /* \"#utility.yul\":6059:6478   */\n      swap2\n      swap1\n      pop\n      jump\t// out\n        /* \"#utility.yul\":6484:6711   */\n    tag_101:\n        /* \"#utility.yul\":6624:6658   */\n      0x46756e64732077696c6c206f6e6c792062652072656c656173656420746f2074\n        /* \"#utility.yul\":6620:6621   */\n      0x00\n        /* \"#utility.yul\":6612:6618   */\n      dup3\n        /* \"#utility.yul\":6608:6622   */\n      add\n        /* \"#utility.yul\":6601:6659   */\n      mstore\n        /* \"#utility.yul\":6693:6703   */\n      0x6865206f776e6572000000000000000000000000000000000000000000000000\n        /* \"#utility.yul\":6688:6690   */\n      0x20\n        /* \"#utility.yul\":6680:6686   */\n      dup3\n        /* \"#utility.yul\":6676:6691   */\n      add\n        /* \"#utility.yul\":6669:6704   */\n      mstore\n        /* \"#utility.yul\":6484:6711   */\n      pop\n      jump\t// out\n        /* \"#utility.yul\":6717:7083   */\n    tag_102:\n        /* \"#utility.yul\":6859:6862   */\n      0x00\n        /* \"#utility.yul\":6880:6947   */\n      tag_163\n        /* \"#utility.yul\":6944:6946   */\n      0x28\n        /* \"#utility.yul\":6939:6942   */\n      dup4\n        /* \"#utility.yul\":6880:6947   */\n      tag_81\n      jump\t// in\n    tag_163:\n        /* \"#utility.yul\":6873:6947   */\n      swap2\n      pop\n        /* \"#utility.yul\":6956:7049   */\n      tag_164\n        /* \"#utility.yul\":7045:7048   */\n      dup3\n        /* \"#utility.yul\":6956:7049   */\n      tag_101\n      jump\t// in\n    tag_164:\n        /* \"#utility.yul\":7074:7076   */\n      0x40\n        /* \"#utility.yul\":7069:7072   */\n      dup3\n        /* \"#utility.yul\":7065:7077   */\n      add\n        /* \"#utility.yul\":7058:7077   */\n      swap1\n      pop\n        /* \"#utility.yul\":6717:7083   */\n      swap2\n      swap1\n      pop\n      jump\t// out\n        /* \"#utility.yul\":7089:7508   */\n    tag_73:\n        /* \"#utility.yul\":7255:7259   */\n      0x00\n        /* \"#utility.yul\":7293:7295   */\n      0x20\n        /* \"#utility.yul\":7282:7291   */\n      dup3\n        /* \"#utility.yul\":7278:7296   */\n      add\n        /* \"#utility.yul\":7270:7296   */\n      swap1\n      pop\n        /* \"#utility.yul\":7342:7351   */\n      dup2\n        /* \"#utility.yul\":7336:7340   */\n      dup2\n        /* \"#utility.yul\":7332:7352   */\n      sub\n        /* \"#utility.yul\":7328:7329   */\n      0x00\n        /* \"#utility.yul\":7317:7326   */\n      dup4\n        /* \"#utility.yul\":7313:7330   */\n      add\n        /* \"#utility.yul\":7306:7353   */\n      mstore\n        /* \"#utility.yul\":7370:7501   */\n      tag_166\n        /* \"#utility.yul\":7496:7500   */\n      dup2\n        /* \"#utility.yul\":7370:7501   */\n      tag_102\n      jump\t// in\n    tag_166:\n        /* \"#utility.yul\":7362:7501   */\n      swap1\n      pop\n        /* \"#utility.yul\":7089:7508   */\n      swap2\n      swap1\n      pop\n      jump\t// out\n        /* \"#utility.yul\":7514:7735   */\n    tag_103:\n        /* \"#utility.yul\":7654:7688   */\n      0x5468652066756e64696e6720646964206e6f742072656163682074686520676f\n        /* \"#utility.yul\":7650:7651   */\n      0x00\n        /* \"#utility.yul\":7642:7648   */\n      dup3\n        /* \"#utility.yul\":7638:7652   */\n      add\n        /* \"#utility.yul\":7631:7689   */\n      mstore\n        /* \"#utility.yul\":7723:7727   */\n      0x616c000000000000000000000000000000000000000000000000000000000000\n        /* \"#utility.yul\":7718:7720   */\n      0x20\n        /* \"#utility.yul\":7710:7716   */\n      dup3\n        /* \"#utility.yul\":7706:7721   */\n      add\n        /* \"#utility.yul\":7699:7728   */\n      mstore\n        /* \"#utility.yul\":7514:7735   */\n      pop\n      jump\t// out\n        /* \"#utility.yul\":7741:8107   */\n    tag_104:\n        /* \"#utility.yul\":7883:7886   */\n      0x00\n        /* \"#utility.yul\":7904:7971   */\n      tag_169\n        /* \"#utility.yul\":7968:7970   */\n      0x22\n        /* \"#utility.yul\":7963:7966   */\n      dup4\n        /* \"#utility.yul\":7904:7971   */\n      tag_81\n      jump\t// in\n    tag_169:\n        /* \"#utility.yul\":7897:7971   */\n      swap2\n      pop\n        /* \"#utility.yul\":7980:8073   */\n      tag_170\n        /* \"#utility.yul\":8069:8072   */\n      dup3\n        /* \"#utility.yul\":7980:8073   */\n      tag_103\n      jump\t// in\n    tag_170:\n        /* \"#utility.yul\":8098:8100   */\n      0x40\n        /* \"#utility.yul\":8093:8096   */\n      dup3\n        /* \"#utility.yul\":8089:8101   */\n      add\n        /* \"#utility.yul\":8082:8101   */\n      swap1\n      pop\n        /* \"#utility.yul\":7741:8107   */\n      swap2\n      swap1\n      pop\n      jump\t// out\n        /* \"#utility.yul\":8113:8532   */\n    tag_76:\n        /* \"#utility.yul\":8279:8283   */\n      0x00\n        /* \"#utility.yul\":8317:8319   */\n      0x20\n        /* \"#utility.yul\":8306:8315   */\n      dup3\n        /* \"#utility.yul\":8302:8320   */\n      add\n        /* \"#utility.yul\":8294:8320   */\n      swap1\n      pop\n        /* \"#utility.yul\":8366:8375   */\n      dup2\n        /* \"#utility.yul\":8360:8364   */\n      dup2\n        /* \"#utility.yul\":8356:8376   */\n      sub\n        /* \"#utility.yul\":8352:8353   */\n      0x00\n        /* \"#utility.yul\":8341:8350   */\n      dup4\n        /* \"#utility.yul\":8337:8354   */\n      add\n        /* \"#utility.yul\":8330:8377   */\n      mstore\n        /* \"#utility.yul\":8394:8525   */\n      tag_172\n        /* \"#utility.yul\":8520:8524   */\n      dup2\n        /* \"#utility.yul\":8394:8525   */\n      tag_104\n      jump\t// in\n    tag_172:\n        /* \"#utility.yul\":8386:8525   */\n      swap1\n      pop\n        /* \"#utility.yul\":8113:8532   */\n      swap2\n      swap1\n      pop\n      jump\t// out\n\n    auxdata: 0xa26469706673582212207c4544cc50afc2723d3322651699475a95ce3ed3f194393c2a90f484666bd2c264736f6c63430008130033\n}\n",
				"bytecode": {
					"linkReferences": {},
					"object": "60806040523480156200001157600080fd5b5060405162000f2e38038062000f2e833981810160405281019062000037919062000166565b8560008190555033600160006101000a81548173ffffffffffffffffffffffffffffffffffffffff021916908373ffffffffffffffffffffffffffffffffffffffff160217905550600060038190555060018162000096919062000231565b603c83620000a5919062000231565b610e1085620000b5919062000231565b6201518087620000c6919062000231565b62093a8089620000d7919062000231565b42620000e491906200027c565b620000f091906200027c565b620000fc91906200027c565b6200010891906200027c565b6200011491906200027c565b600481905550505050505050620002b7565b600080fd5b6000819050919050565b62000140816200012b565b81146200014c57600080fd5b50565b600081519050620001608162000135565b92915050565b60008060008060008060c0878903121562000186576200018562000126565b5b60006200019689828a016200014f565b9650506020620001a989828a016200014f565b9550506040620001bc89828a016200014f565b9450506060620001cf89828a016200014f565b9350506080620001e289828a016200014f565b92505060a0620001f589828a016200014f565b9150509295509295509295565b7f4e487b7100000000000000000000000000000000000000000000000000000000600052601160045260246000fd5b60006200023e826200012b565b91506200024b836200012b565b92508282026200025b816200012b565b9150828204841483151762000275576200027462000202565b5b5092915050565b600062000289826200012b565b915062000296836200012b565b9250828201905080821115620002b157620002b062000202565b5b92915050565b610c6780620002c76000396000f3fe60806040526004361061007f5760003560e01c80638da5cb5b1161004e5780638da5cb5b146101a7578063953b8fb8146101d2578063cc6cb19a146101fd578063ce1b088a1461023a57610138565b8063159f01361461013d5780634bf7172914610147578063590e1ae3146101725780635958611e1461017c57610138565b366101385760045442106100c8576040517f08c379a00000000000000000000000000000000000000000000000000000000081526004016100bf90610832565b60405180910390fd5b34600260003373ffffffffffffffffffffffffffffffffffffffff1673ffffffffffffffffffffffffffffffffffffffff1681526020019081526020016000206000828254610117919061088b565b925050819055503460036000828254610130919061088b565b925050819055005b600080fd5b610145610244565b005b34801561015357600080fd5b5061015c6103dd565b60405161016991906108ce565b60405180910390f35b61017a610424565b005b34801561018857600080fd5b50610191610603565b60405161019e91906108ce565b60405180910390f35b3480156101b357600080fd5b506101bc610609565b6040516101c9919061092a565b60405180910390f35b3480156101de57600080fd5b506101e761062f565b6040516101f491906108ce565b60405180910390f35b34801561020957600080fd5b50610224600480360381019061021f9190610976565b610635565b60405161023191906108ce565b60405180910390f35b61024261064d565b005b6004544210610288576040517f08c379a000000000000000000000000000000000000000000000000000000000815260040161027f90610832565b60405180910390fd5b6000600260003373ffffffffffffffffffffffffffffffffffffffff1673ffffffffffffffffffffffffffffffffffffffff168152602001908152602001600020541161030a576040517f08c379a000000000000000000000000000000000000000000000000000000000815260040161030190610a15565b60405180910390fd5b6000600260003373ffffffffffffffffffffffffffffffffffffffff1673ffffffffffffffffffffffffffffffffffffffff1681526020019081526020016000205490506000600260003373ffffffffffffffffffffffffffffffffffffffff1673ffffffffffffffffffffffffffffffffffffffff168152602001908152602001600020819055503373ffffffffffffffffffffffffffffffffffffffff166108fc829081150290604051600060405180830381858888f193505050501580156103d9573d6000803e3d6000fd5b5050565b6000600260003373ffffffffffffffffffffffffffffffffffffffff1673ffffffffffffffffffffffffffffffffffffffff16815260200190815260200160002054905090565b6004544211610468576040517f08c379a000000000000000000000000000000000000000000000000000000000815260040161045f90610a81565b60405180910390fd5b600054600354106104ae576040517f08c379a00000000000000000000000000000000000000000000000000000000081526004016104a590610aed565b60405180910390fd5b6000600260003373ffffffffffffffffffffffffffffffffffffffff1673ffffffffffffffffffffffffffffffffffffffff1681526020019081526020016000205411610530576040517f08c379a000000000000000000000000000000000000000000000000000000000815260040161052790610a15565b60405180910390fd5b6000600260003373ffffffffffffffffffffffffffffffffffffffff1673ffffffffffffffffffffffffffffffffffffffff1681526020019081526020016000205490506000600260003373ffffffffffffffffffffffffffffffffffffffff1673ffffffffffffffffffffffffffffffffffffffff168152602001908152602001600020819055503373ffffffffffffffffffffffffffffffffffffffff166108fc829081150290604051600060405180830381858888f193505050501580156105ff573d6000803e3d6000fd5b5050565b60045481565b600160009054906101000a900473ffffffffffffffffffffffffffffffffffffffff1681565b60005481565b60026020528060005260406000206000915090505481565b600160009054906101000a900473ffffffffffffffffffffffffffffffffffffffff1673ffffffffffffffffffffffffffffffffffffffff163373ffffffffffffffffffffffffffffffffffffffff16146106dd576040517f08c379a00000000000000000000000000000000000000000000000000000000081526004016106d490610b7f565b60405180910390fd5b6000546003541015610724576040517f08c379a000000000000000000000000000000000000000000000000000000000815260040161071b90610c11565b60405180910390fd5b6004544211610768576040517f08c379a000000000000000000000000000000000000000000000000000000000815260040161075f90610a81565b60405180910390fd5b600160009054906101000a900473ffffffffffffffffffffffffffffffffffffffff1673ffffffffffffffffffffffffffffffffffffffff166108fc6003549081150290604051600060405180830381858888f193505050501580156107d2573d6000803e3d6000fd5b50565b600082825260208201905092915050565b7f546869732066756e64696e67206973206f766572000000000000000000000000600082015250565b600061081c6014836107d5565b9150610827826107e6565b602082019050919050565b6000602082019050818103600083015261084b8161080f565b9050919050565b6000819050919050565b7f4e487b7100000000000000000000000000000000000000000000000000000000600052601160045260246000fd5b600061089682610852565b91506108a183610852565b92508282019050808211156108b9576108b861085c565b5b92915050565b6108c881610852565b82525050565b60006020820190506108e360008301846108bf565b92915050565b600073ffffffffffffffffffffffffffffffffffffffff82169050919050565b6000610914826108e9565b9050919050565b61092481610909565b82525050565b600060208201905061093f600083018461091b565b92915050565b600080fd5b61095381610909565b811461095e57600080fd5b50565b6000813590506109708161094a565b92915050565b60006020828403121561098c5761098b610945565b5b600061099a84828501610961565b91505092915050565b7f596f7520646964206e6f7420646f6e61746520746f20746869732066756e646960008201527f6e67000000000000000000000000000000000000000000000000000000000000602082015250565b60006109ff6022836107d5565b9150610a0a826109a3565b604082019050919050565b60006020820190508181036000830152610a2e816109f2565b9050919050565b7f546869732066756e64696e67206973206e6f74206f7665722079657400000000600082015250565b6000610a6b601c836107d5565b9150610a7682610a35565b602082019050919050565b60006020820190508181036000830152610a9a81610a5e565b9050919050565b7f5468652066756e64696e672064696420726561636865642074686520676f616c600082015250565b6000610ad76020836107d5565b9150610ae282610aa1565b602082019050919050565b60006020820190508181036000830152610b0681610aca565b9050919050565b7f46756e64732077696c6c206f6e6c792062652072656c656173656420746f207460008201527f6865206f776e6572000000000000000000000000000000000000000000000000602082015250565b6000610b696028836107d5565b9150610b7482610b0d565b604082019050919050565b60006020820190508181036000830152610b9881610b5c565b9050919050565b7f5468652066756e64696e6720646964206e6f742072656163682074686520676f60008201527f616c000000000000000000000000000000000000000000000000000000000000602082015250565b6000610bfb6022836107d5565b9150610c0682610b9f565b604082019050919050565b60006020820190508181036000830152610c2a81610bee565b905091905056fea26469706673582212207c4544cc50afc2723d3322651699475a95ce3ed3f194393c2a90f484666bd2c264736f6c63430008130033",
					"opcodes": "PUSH1 0x80 PUSH1 0x40 MSTORE CALLVALUE DUP1 ISZERO PUSH3 0x11 JUMPI PUSH1 0x0 DUP1 REVERT JUMPDEST POP PUSH1 0x40 MLOAD PUSH3 0xF2E CODESIZE SUB DUP1 PUSH3 0xF2E DUP4 CODECOPY DUP2 DUP2 ADD PUSH1 0x40 MSTORE DUP2 ADD SWAP1 PUSH3 0x37 SWAP2 SWAP1 PUSH3 0x166 JUMP JUMPDEST DUP6 PUSH1 0x0 DUP2 SWAP1 SSTORE POP CALLER PUSH1 0x1 PUSH1 0x0 PUSH2 0x100 EXP DUP2 SLOAD DUP2 PUSH20 0xFFFFFFFFFFFFFFFFFFFFFFFFFFFFFFFFFFFFFFFF MUL NOT AND SWAP1 DUP4 PUSH20 0xFFFFFFFFFFFFFFFFFFFFFFFFFFFFFFFFFFFFFFFF AND MUL OR SWAP1 SSTORE POP PUSH1 0x0 PUSH1 0x3 DUP2 SWAP1 SSTORE POP PUSH1 0x1 DUP2 PUSH3 0x96 SWAP2 SWAP1 PUSH3 0x231 JUMP JUMPDEST PUSH1 0x3C DUP4 PUSH3 0xA5 SWAP2 SWAP1 PUSH3 0x231 JUMP JUMPDEST PUSH2 0xE10 DUP6 PUSH3 0xB5 SWAP2 SWAP1 PUSH3 0x231 JUMP JUMPDEST PUSH3 0x15180 DUP8 PUSH3 0xC6 SWAP2 SWAP1 PUSH3 0x231 JUMP JUMPDEST PUSH3 0x93A80 DUP10 PUSH3 0xD7 SWAP2 SWAP1 PUSH3 0x231 JUMP JUMPDEST TIMESTAMP PUSH3 0xE4 SWAP2 SWAP1 PUSH3 0x27C JUMP JUMPDEST PUSH3 0xF0 SWAP2 SWAP1 PUSH3 0x27C JUMP JUMPDEST PUSH3 0xFC SWAP2 SWAP1 PUSH3 0x27C JUMP JUMPDEST PUSH3 0x108 SWAP2 SWAP1 PUSH3 0x27C JUMP JUMPDEST PUSH3 0x114 SWAP2 SWAP1 PUSH3 0x27C JUMP JUMPDEST PUSH1 0x4 DUP2 SWAP1 SSTORE POP POP POP POP POP POP POP PUSH3 0x2B7 JUMP JUMPDEST PUSH1 0x0 DUP1 REVERT JUMPDEST PUSH1 0x0 DUP2 SWAP1 POP SWAP2 SWAP1 POP JUMP JUMPDEST PUSH3 0x140 DUP2 PUSH3 0x12B JUMP JUMPDEST DUP2 EQ PUSH3 0x14C JUMPI PUSH1 0x0 DUP1 REVERT JUMPDEST POP JUMP JUMPDEST PUSH1 0x0 DUP2 MLOAD SWAP1 POP PUSH3 0x160 DUP2 PUSH3 0x135 JUMP JUMPDEST SWAP3 SWAP2 POP POP JUMP JUMPDEST PUSH1 0x0 DUP1 PUSH1 0x0 DUP1 PUSH1 0x0 DUP1 PUSH1 0xC0 DUP8 DUP10 SUB SLT ISZERO PUSH3 0x186 JUMPI PUSH3 0x185 PUSH3 0x126 JUMP JUMPDEST JUMPDEST PUSH1 0x0 PUSH3 0x196 DUP10 DUP3 DUP11 ADD PUSH3 0x14F JUMP JUMPDEST SWAP7 POP POP PUSH1 0x20 PUSH3 0x1A9 DUP10 DUP3 DUP11 ADD PUSH3 0x14F JUMP JUMPDEST SWAP6 POP POP PUSH1 0x40 PUSH3 0x1BC DUP10 DUP3 DUP11 ADD PUSH3 0x14F JUMP JUMPDEST SWAP5 POP POP PUSH1 0x60 PUSH3 0x1CF DUP10 DUP3 DUP11 ADD PUSH3 0x14F JUMP JUMPDEST SWAP4 POP POP PUSH1 0x80 PUSH3 0x1E2 DUP10 DUP3 DUP11 ADD PUSH3 0x14F JUMP JUMPDEST SWAP3 POP POP PUSH1 0xA0 PUSH3 0x1F5 DUP10 DUP3 DUP11 ADD PUSH3 0x14F JUMP JUMPDEST SWAP2 POP POP SWAP3 SWAP6 POP SWAP3 SWAP6 POP SWAP3 SWAP6 JUMP JUMPDEST PUSH32 0x4E487B7100000000000000000000000000000000000000000000000000000000 PUSH1 0x0 MSTORE PUSH1 0x11 PUSH1 0x4 MSTORE PUSH1 0x24 PUSH1 0x0 REVERT JUMPDEST PUSH1 0x0 PUSH3 0x23E DUP3 PUSH3 0x12B JUMP JUMPDEST SWAP2 POP PUSH3 0x24B DUP4 PUSH3 0x12B JUMP JUMPDEST SWAP3 POP DUP3 DUP3 MUL PUSH3 0x25B DUP2 PUSH3 0x12B JUMP JUMPDEST SWAP2 POP DUP3 DUP3 DIV DUP5 EQ DUP4 ISZERO OR PUSH3 0x275 JUMPI PUSH3 0x274 PUSH3 0x202 JUMP JUMPDEST JUMPDEST POP SWAP3 SWAP2 POP POP JUMP JUMPDEST PUSH1 0x0 PUSH3 0x289 DUP3 PUSH3 0x12B JUMP JUMPDEST SWAP2 POP PUSH3 0x296 DUP4 PUSH3 0x12B JUMP JUMPDEST SWAP3 POP DUP3 DUP3 ADD SWAP1 POP DUP1 DUP3 GT ISZERO PUSH3 0x2B1 JUMPI PUSH3 0x2B0 PUSH3 0x202 JUMP JUMPDEST JUMPDEST SWAP3 SWAP2 POP POP JUMP JUMPDEST PUSH2 0xC67 DUP1 PUSH3 0x2C7 PUSH1 0x0 CODECOPY PUSH1 0x0 RETURN INVALID PUSH1 0x80 PUSH1 0x40 MSTORE PUSH1 0x4 CALLDATASIZE LT PUSH2 0x7F JUMPI PUSH1 0x0 CALLDATALOAD PUSH1 0xE0 SHR DUP1 PUSH4 0x8DA5CB5B GT PUSH2 0x4E JUMPI DUP1 PUSH4 0x8DA5CB5B EQ PUSH2 0x1A7 JUMPI DUP1 PUSH4 0x953B8FB8 EQ PUSH2 0x1D2 JUMPI DUP1 PUSH4 0xCC6CB19A EQ PUSH2 0x1FD JUMPI DUP1 PUSH4 0xCE1B088A EQ PUSH2 0x23A JUMPI PUSH2 0x138 JUMP JUMPDEST DUP1 PUSH4 0x159F0136 EQ PUSH2 0x13D JUMPI DUP1 PUSH4 0x4BF71729 EQ PUSH2 0x147 JUMPI DUP1 PUSH4 0x590E1AE3 EQ PUSH2 0x172 JUMPI DUP1 PUSH4 0x5958611E EQ PUSH2 0x17C JUMPI PUSH2 0x138 JUMP JUMPDEST CALLDATASIZE PUSH2 0x138 JUMPI PUSH1 0x4 SLOAD TIMESTAMP LT PUSH2 0xC8 JUMPI PUSH1 0x40 MLOAD PUSH32 0x8C379A000000000000000000000000000000000000000000000000000000000 DUP2 MSTORE PUSH1 0x4 ADD PUSH2 0xBF SWAP1 PUSH2 0x832 JUMP JUMPDEST PUSH1 0x40 MLOAD DUP1 SWAP2 SUB SWAP1 REVERT JUMPDEST CALLVALUE PUSH1 0x2 PUSH1 0x0 CALLER PUSH20 0xFFFFFFFFFFFFFFFFFFFFFFFFFFFFFFFFFFFFFFFF AND PUSH20 0xFFFFFFFFFFFFFFFFFFFFFFFFFFFFFFFFFFFFFFFF AND DUP2 MSTORE PUSH1 0x20 ADD SWAP1 DUP2 MSTORE PUSH1 0x20 ADD PUSH1 0x0 KECCAK256 PUSH1 0x0 DUP3 DUP3 SLOAD PUSH2 0x117 SWAP2 SWAP1 PUSH2 0x88B JUMP JUMPDEST SWAP3 POP POP DUP2 SWAP1 SSTORE POP CALLVALUE PUSH1 0x3 PUSH1 0x0 DUP3 DUP3 SLOAD PUSH2 0x130 SWAP2 SWAP1 PUSH2 0x88B JUMP JUMPDEST SWAP3 POP POP DUP2 SWAP1 SSTORE STOP JUMPDEST PUSH1 0x0 DUP1 REVERT JUMPDEST PUSH2 0x145 PUSH2 0x244 JUMP JUMPDEST STOP JUMPDEST CALLVALUE DUP1 ISZERO PUSH2 0x153 JUMPI PUSH1 0x0 DUP1 REVERT JUMPDEST POP PUSH2 0x15C PUSH2 0x3DD JUMP JUMPDEST PUSH1 0x40 MLOAD PUSH2 0x169 SWAP2 SWAP1 PUSH2 0x8CE JUMP JUMPDEST PUSH1 0x40 MLOAD DUP1 SWAP2 SUB SWAP1 RETURN JUMPDEST PUSH2 0x17A PUSH2 0x424 JUMP JUMPDEST STOP JUMPDEST CALLVALUE DUP1 ISZERO PUSH2 0x188 JUMPI PUSH1 0x0 DUP1 REVERT JUMPDEST POP PUSH2 0x191 PUSH2 0x603 JUMP JUMPDEST PUSH1 0x40 MLOAD PUSH2 0x19E SWAP2 SWAP1 PUSH2 0x8CE JUMP JUMPDEST PUSH1 0x40 MLOAD DUP1 SWAP2 SUB SWAP1 RETURN JUMPDEST CALLVALUE DUP1 ISZERO PUSH2 0x1B3 JUMPI PUSH1 0x0 DUP1 REVERT JUMPDEST POP PUSH2 0x1BC PUSH2 0x609 JUMP JUMPDEST PUSH1 0x40 MLOAD PUSH2 0x1C9 SWAP2 SWAP1 PUSH2 0x92A JUMP JUMPDEST PUSH1 0x40 MLOAD DUP1 SWAP2 SUB SWAP1 RETURN JUMPDEST CALLVALUE DUP1 ISZERO PUSH2 0x1DE JUMPI PUSH1 0x0 DUP1 REVERT JUMPDEST POP PUSH2 0x1E7 PUSH2 0x62F JUMP JUMPDEST PUSH1 0x40 MLOAD PUSH2 0x1F4 SWAP2 SWAP1 PUSH2 0x8CE JUMP JUMPDEST PUSH1 0x40 MLOAD DUP1 SWAP2 SUB SWAP1 RETURN JUMPDEST CALLVALUE DUP1 ISZERO PUSH2 0x209 JUMPI PUSH1 0x0 DUP1 REVERT JUMPDEST POP PUSH2 0x224 PUSH1 0x4 DUP1 CALLDATASIZE SUB DUP2 ADD SWAP1 PUSH2 0x21F SWAP2 SWAP1 PUSH2 0x976 JUMP JUMPDEST PUSH2 0x635 JUMP JUMPDEST PUSH1 0x40 MLOAD PUSH2 0x231 SWAP2 SWAP1 PUSH2 0x8CE JUMP JUMPDEST PUSH1 0x40 MLOAD DUP1 SWAP2 SUB SWAP1 RETURN JUMPDEST PUSH2 0x242 PUSH2 0x64D JUMP JUMPDEST STOP JUMPDEST PUSH1 0x4 SLOAD TIMESTAMP LT PUSH2 0x288 JUMPI PUSH1 0x40 MLOAD PUSH32 0x8C379A000000000000000000000000000000000000000000000000000000000 DUP2 MSTORE PUSH1 0x4 ADD PUSH2 0x27F SWAP1 PUSH2 0x832 JUMP JUMPDEST PUSH1 0x40 MLOAD DUP1 SWAP2 SUB SWAP1 REVERT JUMPDEST PUSH1 0x0 PUSH1 0x2 PUSH1 0x0 CALLER PUSH20 0xFFFFFFFFFFFFFFFFFFFFFFFFFFFFFFFFFFFFFFFF AND PUSH20 0xFFFFFFFFFFFFFFFFFFFFFFFFFFFFFFFFFFFFFFFF AND DUP2 MSTORE PUSH1 0x20 ADD SWAP1 DUP2 MSTORE PUSH1 0x20 ADD PUSH1 0x0 KECCAK256 SLOAD GT PUSH2 0x30A JUMPI PUSH1 0x40 MLOAD PUSH32 0x8C379A000000000000000000000000000000000000000000000000000000000 DUP2 MSTORE PUSH1 0x4 ADD PUSH2 0x301 SWAP1 PUSH2 0xA15 JUMP JUMPDEST PUSH1 0x40 MLOAD DUP1 SWAP2 SUB SWAP1 REVERT JUMPDEST PUSH1 0x0 PUSH1 0x2 PUSH1 0x0 CALLER PUSH20 0xFFFFFFFFFFFFFFFFFFFFFFFFFFFFFFFFFFFFFFFF AND PUSH20 0xFFFFFFFFFFFFFFFFFFFFFFFFFFFFFFFFFFFFFFFF AND DUP2 MSTORE PUSH1 0x20 ADD SWAP1 DUP2 MSTORE PUSH1 0x20 ADD PUSH1 0x0 KECCAK256 SLOAD SWAP1 POP PUSH1 0x0 PUSH1 0x2 PUSH1 0x0 CALLER PUSH20 0xFFFFFFFFFFFFFFFFFFFFFFFFFFFFFFFFFFFFFFFF AND PUSH20 0xFFFFFFFFFFFFFFFFFFFFFFFFFFFFFFFFFFFFFFFF AND DUP2 MSTORE PUSH1 0x20 ADD SWAP1 DUP2 MSTORE PUSH1 0x20 ADD PUSH1 0x0 KECCAK256 DUP2 SWAP1 SSTORE POP CALLER PUSH20 0xFFFFFFFFFFFFFFFFFFFFFFFFFFFFFFFFFFFFFFFF AND PUSH2 0x8FC DUP3 SWAP1 DUP2 ISZERO MUL SWAP1 PUSH1 0x40 MLOAD PUSH1 0x0 PUSH1 0x40 MLOAD DUP1 DUP4 SUB DUP2 DUP6 DUP9 DUP9 CALL SWAP4 POP POP POP POP ISZERO DUP1 ISZERO PUSH2 0x3D9 JUMPI RETURNDATASIZE PUSH1 0x0 DUP1 RETURNDATACOPY RETURNDATASIZE PUSH1 0x0 REVERT JUMPDEST POP POP JUMP JUMPDEST PUSH1 0x0 PUSH1 0x2 PUSH1 0x0 CALLER PUSH20 0xFFFFFFFFFFFFFFFFFFFFFFFFFFFFFFFFFFFFFFFF AND PUSH20 0xFFFFFFFFFFFFFFFFFFFFFFFFFFFFFFFFFFFFFFFF AND DUP2 MSTORE PUSH1 0x20 ADD SWAP1 DUP2 MSTORE PUSH1 0x20 ADD PUSH1 0x0 KECCAK256 SLOAD SWAP1 POP SWAP1 JUMP JUMPDEST PUSH1 0x4 SLOAD TIMESTAMP GT PUSH2 0x468 JUMPI PUSH1 0x40 MLOAD PUSH32 0x8C379A000000000000000000000000000000000000000000000000000000000 DUP2 MSTORE PUSH1 0x4 ADD PUSH2 0x45F SWAP1 PUSH2 0xA81 JUMP JUMPDEST PUSH1 0x40 MLOAD DUP1 SWAP2 SUB SWAP1 REVERT JUMPDEST PUSH1 0x0 SLOAD PUSH1 0x3 SLOAD LT PUSH2 0x4AE JUMPI PUSH1 0x40 MLOAD PUSH32 0x8C379A000000000000000000000000000000000000000000000000000000000 DUP2 MSTORE PUSH1 0x4 ADD PUSH2 0x4A5 SWAP1 PUSH2 0xAED JUMP JUMPDEST PUSH1 0x40 MLOAD DUP1 SWAP2 SUB SWAP1 REVERT JUMPDEST PUSH1 0x0 PUSH1 0x2 PUSH1 0x0 CALLER PUSH20 0xFFFFFFFFFFFFFFFFFFFFFFFFFFFFFFFFFFFFFFFF AND PUSH20 0xFFFFFFFFFFFFFFFFFFFFFFFFFFFFFFFFFFFFFFFF AND DUP2 MSTORE PUSH1 0x20 ADD SWAP1 DUP2 MSTORE PUSH1 0x20 ADD PUSH1 0x0 KECCAK256 SLOAD GT PUSH2 0x530 JUMPI PUSH1 0x40 MLOAD PUSH32 0x8C379A000000000000000000000000000000000000000000000000000000000 DUP2 MSTORE PUSH1 0x4 ADD PUSH2 0x527 SWAP1 PUSH2 0xA15 JUMP JUMPDEST PUSH1 0x40 MLOAD DUP1 SWAP2 SUB SWAP1 REVERT JUMPDEST PUSH1 0x0 PUSH1 0x2 PUSH1 0x0 CALLER PUSH20 0xFFFFFFFFFFFFFFFFFFFFFFFFFFFFFFFFFFFFFFFF AND PUSH20 0xFFFFFFFFFFFFFFFFFFFFFFFFFFFFFFFFFFFFFFFF AND DUP2 MSTORE PUSH1 0x20 ADD SWAP1 DUP2 MSTORE PUSH1 0x20 ADD PUSH1 0x0 KECCAK256 SLOAD SWAP1 POP PUSH1 0x0 PUSH1 0x2 PUSH1 0x0 CALLER PUSH20 0xFFFFFFFFFFFFFFFFFFFFFFFFFFFFFFFFFFFFFFFF AND PUSH20 0xFFFFFFFFFFFFFFFFFFFFFFFFFFFFFFFFFFFFFFFF AND DUP2 MSTORE PUSH1 0x20 ADD SWAP1 DUP2 MSTORE PUSH1 0x20 ADD PUSH1 0x0 KECCAK256 DUP2 SWAP1 SSTORE POP CALLER PUSH20 0xFFFFFFFFFFFFFFFFFFFFFFFFFFFFFFFFFFFFFFFF AND PUSH2 0x8FC DUP3 SWAP1 DUP2 ISZERO MUL SWAP1 PUSH1 0x40 MLOAD PUSH1 0x0 PUSH1 0x40 MLOAD DUP1 DUP4 SUB DUP2 DUP6 DUP9 DUP9 CALL SWAP4 POP POP POP POP ISZERO DUP1 ISZERO PUSH2 0x5FF JUMPI RETURNDATASIZE PUSH1 0x0 DUP1 RETURNDATACOPY RETURNDATASIZE PUSH1 0x0 REVERT JUMPDEST POP POP JUMP JUMPDEST PUSH1 0x4 SLOAD DUP2 JUMP JUMPDEST PUSH1 0x1 PUSH1 0x0 SWAP1 SLOAD SWAP1 PUSH2 0x100 EXP SWAP1 DIV PUSH20 0xFFFFFFFFFFFFFFFFFFFFFFFFFFFFFFFFFFFFFFFF AND DUP2 JUMP JUMPDEST PUSH1 0x0 SLOAD DUP2 JUMP JUMPDEST PUSH1 0x2 PUSH1 0x20 MSTORE DUP1 PUSH1 0x0 MSTORE PUSH1 0x40 PUSH1 0x0 KECCAK256 PUSH1 0x0 SWAP2 POP SWAP1 POP SLOAD DUP2 JUMP JUMPDEST PUSH1 0x1 PUSH1 0x0 SWAP1 SLOAD SWAP1 PUSH2 0x100 EXP SWAP1 DIV PUSH20 0xFFFFFFFFFFFFFFFFFFFFFFFFFFFFFFFFFFFFFFFF AND PUSH20 0xFFFFFFFFFFFFFFFFFFFFFFFFFFFFFFFFFFFFFFFF AND CALLER PUSH20 0xFFFFFFFFFFFFFFFFFFFFFFFFFFFFFFFFFFFFFFFF AND EQ PUSH2 0x6DD JUMPI PUSH1 0x40 MLOAD PUSH32 0x8C379A000000000000000000000000000000000000000000000000000000000 DUP2 MSTORE PUSH1 0x4 ADD PUSH2 0x6D4 SWAP1 PUSH2 0xB7F JUMP JUMPDEST PUSH1 0x40 MLOAD DUP1 SWAP2 SUB SWAP1 REVERT JUMPDEST PUSH1 0x0 SLOAD PUSH1 0x3 SLOAD LT ISZERO PUSH2 0x724 JUMPI PUSH1 0x40 MLOAD PUSH32 0x8C379A000000000000000000000000000000000000000000000000000000000 DUP2 MSTORE PUSH1 0x4 ADD PUSH2 0x71B SWAP1 PUSH2 0xC11 JUMP JUMPDEST PUSH1 0x40 MLOAD DUP1 SWAP2 SUB SWAP1 REVERT JUMPDEST PUSH1 0x4 SLOAD TIMESTAMP GT PUSH2 0x768 JUMPI PUSH1 0x40 MLOAD PUSH32 0x8C379A000000000000000000000000000000000000000000000000000000000 DUP2 MSTORE PUSH1 0x4 ADD PUSH2 0x75F SWAP1 PUSH2 0xA81 JUMP JUMPDEST PUSH1 0x40 MLOAD DUP1 SWAP2 SUB SWAP1 REVERT JUMPDEST PUSH1 0x1 PUSH1 0x0 SWAP1 SLOAD SWAP1 PUSH2 0x100 EXP SWAP1 DIV PUSH20 0xFFFFFFFFFFFFFFFFFFFFFFFFFFFFFFFFFFFFFFFF AND PUSH20 0xFFFFFFFFFFFFFFFFFFFFFFFFFFFFFFFFFFFFFFFF AND PUSH2 0x8FC PUSH1 0x3 SLOAD SWAP1 DUP2 ISZERO MUL SWAP1 PUSH1 0x40 MLOAD PUSH1 0x0 PUSH1 0x40 MLOAD DUP1 DUP4 SUB DUP2 DUP6 DUP9 DUP9 CALL SWAP4 POP POP POP POP ISZERO DUP1 ISZERO PUSH2 0x7D2 JUMPI RETURNDATASIZE PUSH1 0x0 DUP1 RETURNDATACOPY RETURNDATASIZE PUSH1 0x0 REVERT JUMPDEST POP JUMP JUMPDEST PUSH1 0x0 DUP3 DUP3 MSTORE PUSH1 0x20 DUP3 ADD SWAP1 POP SWAP3 SWAP2 POP POP JUMP JUMPDEST PUSH32 0x546869732066756E64696E67206973206F766572000000000000000000000000 PUSH1 0x0 DUP3 ADD MSTORE POP JUMP JUMPDEST PUSH1 0x0 PUSH2 0x81C PUSH1 0x14 DUP4 PUSH2 0x7D5 JUMP JUMPDEST SWAP2 POP PUSH2 0x827 DUP3 PUSH2 0x7E6 JUMP JUMPDEST PUSH1 0x20 DUP3 ADD SWAP1 POP SWAP2 SWAP1 POP JUMP JUMPDEST PUSH1 0x0 PUSH1 0x20 DUP3 ADD SWAP1 POP DUP2 DUP2 SUB PUSH1 0x0 DUP4 ADD MSTORE PUSH2 0x84B DUP2 PUSH2 0x80F JUMP JUMPDEST SWAP1 POP SWAP2 SWAP1 POP JUMP JUMPDEST PUSH1 0x0 DUP2 SWAP1 POP SWAP2 SWAP1 POP JUMP JUMPDEST PUSH32 0x4E487B7100000000000000000000000000000000000000000000000000000000 PUSH1 0x0 MSTORE PUSH1 0x11 PUSH1 0x4 MSTORE PUSH1 0x24 PUSH1 0x0 REVERT JUMPDEST PUSH1 0x0 PUSH2 0x896 DUP3 PUSH2 0x852 JUMP JUMPDEST SWAP2 POP PUSH2 0x8A1 DUP4 PUSH2 0x852 JUMP JUMPDEST SWAP3 POP DUP3 DUP3 ADD SWAP1 POP DUP1 DUP3 GT ISZERO PUSH2 0x8B9 JUMPI PUSH2 0x8B8 PUSH2 0x85C JUMP JUMPDEST JUMPDEST SWAP3 SWAP2 POP POP JUMP JUMPDEST PUSH2 0x8C8 DUP2 PUSH2 0x852 JUMP JUMPDEST DUP3 MSTORE POP POP JUMP JUMPDEST PUSH1 0x0 PUSH1 0x20 DUP3 ADD SWAP1 POP PUSH2 0x8E3 PUSH1 0x0 DUP4 ADD DUP5 PUSH2 0x8BF JUMP JUMPDEST SWAP3 SWAP2 POP POP JUMP JUMPDEST PUSH1 0x0 PUSH20 0xFFFFFFFFFFFFFFFFFFFFFFFFFFFFFFFFFFFFFFFF DUP3 AND SWAP1 POP SWAP2 SWAP1 POP JUMP JUMPDEST PUSH1 0x0 PUSH2 0x914 DUP3 PUSH2 0x8E9 JUMP JUMPDEST SWAP1 POP SWAP2 SWAP1 POP JUMP JUMPDEST PUSH2 0x924 DUP2 PUSH2 0x909 JUMP JUMPDEST DUP3 MSTORE POP POP JUMP JUMPDEST PUSH1 0x0 PUSH1 0x20 DUP3 ADD SWAP1 POP PUSH2 0x93F PUSH1 0x0 DUP4 ADD DUP5 PUSH2 0x91B JUMP JUMPDEST SWAP3 SWAP2 POP POP JUMP JUMPDEST PUSH1 0x0 DUP1 REVERT JUMPDEST PUSH2 0x953 DUP2 PUSH2 0x909 JUMP JUMPDEST DUP2 EQ PUSH2 0x95E JUMPI PUSH1 0x0 DUP1 REVERT JUMPDEST POP JUMP JUMPDEST PUSH1 0x0 DUP2 CALLDATALOAD SWAP1 POP PUSH2 0x970 DUP2 PUSH2 0x94A JUMP JUMPDEST SWAP3 SWAP2 POP POP JUMP JUMPDEST PUSH1 0x0 PUSH1 0x20 DUP3 DUP5 SUB SLT ISZERO PUSH2 0x98C JUMPI PUSH2 0x98B PUSH2 0x945 JUMP JUMPDEST JUMPDEST PUSH1 0x0 PUSH2 0x99A DUP5 DUP3 DUP6 ADD PUSH2 0x961 JUMP JUMPDEST SWAP2 POP POP SWAP3 SWAP2 POP POP JUMP JUMPDEST PUSH32 0x596F7520646964206E6F7420646F6E61746520746F20746869732066756E6469 PUSH1 0x0 DUP3 ADD MSTORE PUSH32 0x6E67000000000000000000000000000000000000000000000000000000000000 PUSH1 0x20 DUP3 ADD MSTORE POP JUMP JUMPDEST PUSH1 0x0 PUSH2 0x9FF PUSH1 0x22 DUP4 PUSH2 0x7D5 JUMP JUMPDEST SWAP2 POP PUSH2 0xA0A DUP3 PUSH2 0x9A3 JUMP JUMPDEST PUSH1 0x40 DUP3 ADD SWAP1 POP SWAP2 SWAP1 POP JUMP JUMPDEST PUSH1 0x0 PUSH1 0x20 DUP3 ADD SWAP1 POP DUP2 DUP2 SUB PUSH1 0x0 DUP4 ADD MSTORE PUSH2 0xA2E DUP2 PUSH2 0x9F2 JUMP JUMPDEST SWAP1 POP SWAP2 SWAP1 POP JUMP JUMPDEST PUSH32 0x546869732066756E64696E67206973206E6F74206F7665722079657400000000 PUSH1 0x0 DUP3 ADD MSTORE POP JUMP JUMPDEST PUSH1 0x0 PUSH2 0xA6B PUSH1 0x1C DUP4 PUSH2 0x7D5 JUMP JUMPDEST SWAP2 POP PUSH2 0xA76 DUP3 PUSH2 0xA35 JUMP JUMPDEST PUSH1 0x20 DUP3 ADD SWAP1 POP SWAP2 SWAP1 POP JUMP JUMPDEST PUSH1 0x0 PUSH1 0x20 DUP3 ADD SWAP1 POP DUP2 DUP2 SUB PUSH1 0x0 DUP4 ADD MSTORE PUSH2 0xA9A DUP2 PUSH2 0xA5E JUMP JUMPDEST SWAP1 POP SWAP2 SWAP1 POP JUMP JUMPDEST PUSH32 0x5468652066756E64696E672064696420726561636865642074686520676F616C PUSH1 0x0 DUP3 ADD MSTORE POP JUMP JUMPDEST PUSH1 0x0 PUSH2 0xAD7 PUSH1 0x20 DUP4 PUSH2 0x7D5 JUMP JUMPDEST SWAP2 POP PUSH2 0xAE2 DUP3 PUSH2 0xAA1 JUMP JUMPDEST PUSH1 0x20 DUP3 ADD SWAP1 POP SWAP2 SWAP1 POP JUMP JUMPDEST PUSH1 0x0 PUSH1 0x20 DUP3 ADD SWAP1 POP DUP2 DUP2 SUB PUSH1 0x0 DUP4 ADD MSTORE PUSH2 0xB06 DUP2 PUSH2 0xACA JUMP JUMPDEST SWAP1 POP SWAP2 SWAP1 POP JUMP JUMPDEST PUSH32 0x46756E64732077696C6C206F6E6C792062652072656C656173656420746F2074 PUSH1 0x0 DUP3 ADD MSTORE PUSH32 0x6865206F776E6572000000000000000000000000000000000000000000000000 PUSH1 0x20 DUP3 ADD MSTORE POP JUMP JUMPDEST PUSH1 0x0 PUSH2 0xB69 PUSH1 0x28 DUP4 PUSH2 0x7D5 JUMP JUMPDEST SWAP2 POP PUSH2 0xB74 DUP3 PUSH2 0xB0D JUMP JUMPDEST PUSH1 0x40 DUP3 ADD SWAP1 POP SWAP2 SWAP1 POP JUMP JUMPDEST PUSH1 0x0 PUSH1 0x20 DUP3 ADD SWAP1 POP DUP2 DUP2 SUB PUSH1 0x0 DUP4 ADD MSTORE PUSH2 0xB98 DUP2 PUSH2 0xB5C JUMP JUMPDEST SWAP1 POP SWAP2 SWAP1 POP JUMP JUMPDEST PUSH32 0x5468652066756E64696E6720646964206E6F742072656163682074686520676F PUSH1 0x0 DUP3 ADD MSTORE PUSH32 0x616C000000000000000000000000000000000000000000000000000000000000 PUSH1 0x20 DUP3 ADD MSTORE POP JUMP JUMPDEST PUSH1 0x0 PUSH2 0xBFB PUSH1 0x22 DUP4 PUSH2 0x7D5 JUMP JUMPDEST SWAP2 POP PUSH2 0xC06 DUP3 PUSH2 0xB9F JUMP JUMPDEST PUSH1 0x40 DUP3 ADD SWAP1 POP SWAP2 SWAP1 POP JUMP JUMPDEST PUSH1 0x0 PUSH1 0x20 DUP3 ADD SWAP1 POP DUP2 DUP2 SUB PUSH1 0x0 DUP4 ADD MSTORE PUSH2 0xC2A DUP2 PUSH2 0xBEE JUMP JUMPDEST SWAP1 POP SWAP2 SWAP1 POP JUMP INVALID LOG2 PUSH5 0x6970667358 0x22 SLT KECCAK256 PUSH29 0x4544CC50AFC2723D3322651699475A95CE3ED3F194393C2A90F484666B 0xD2 0xC2 PUSH5 0x736F6C6343 STOP ADDMOD SGT STOP CALLER "
				},
				"gasEstimates": {
					"creation": {
						"codeDepositCost": "635000",
						"executionCost": "infinite",
						"totalCost": "infinite"
					},
					"external": {
						"cancleFund()": "infinite",
						"donations(address)": "2858",
						"finishTime()": "2496",
						"getDonation()": "2549",
						"owner()": "2514",
						"refund()": "infinite",
						"targetAmount()": "2451",
						"withdrawDonations()": "infinite"
					}
				},
				"methodIdentifiers": {
					"cancleFund()": "159f0136",
					"donations(address)": "cc6cb19a",
					"finishTime()": "5958611e",
					"getDonation()": "4bf71729",
					"owner()": "8da5cb5b",
					"refund()": "590e1ae3",
					"targetAmount()": "953b8fb8",
					"withdrawDonations()": "ce1b088a"
				}
			},
			"storageLayout": {
				"storage": [
					{
						"astId": 3,
						"contract": "contracts/Fundraising.sol:Fundraising",
						"label": "targetAmount",
						"offset": 0,
						"slot": "0",
						"type": "t_uint256"
					},
					{
						"astId": 5,
						"contract": "contracts/Fundraising.sol:Fundraising",
						"label": "owner",
						"offset": 0,
						"slot": "1",
						"type": "t_address"
					},
					{
						"astId": 9,
						"contract": "contracts/Fundraising.sol:Fundraising",
						"label": "donations",
						"offset": 0,
						"slot": "2",
						"type": "t_mapping(t_address,t_uint256)"
					},
					{
						"astId": 11,
						"contract": "contracts/Fundraising.sol:Fundraising",
						"label": "raisedAmount",
						"offset": 0,
						"slot": "3",
						"type": "t_uint256"
					},
					{
						"astId": 13,
						"contract": "contracts/Fundraising.sol:Fundraising",
						"label": "finishTime",
						"offset": 0,
						"slot": "4",
						"type": "t_uint256"
					}
				],
				"types": {
					"t_address": {
						"encoding": "inplace",
						"label": "address",
						"numberOfBytes": "20"
					},
					"t_mapping(t_address,t_uint256)": {
						"encoding": "mapping",
						"key": "t_address",
						"label": "mapping(address => uint256)",
						"numberOfBytes": "32",
						"value": "t_uint256"
					},
					"t_uint256": {
						"encoding": "inplace",
						"label": "uint256",
						"numberOfBytes": "32"
					}
				}
			},
			"userdoc": {
				"kind": "user",
				"methods": {},
				"version": 1
			}
		}
	}
}